{
    "contractName": "InscribeMetadata",
    "abi": [
        {
            "anonymous": false,
            "inputs": [
                {
                    "indexed": true,
                    "internalType": "uint256",
                    "name": "baseUriId",
                    "type": "uint256"
                },
                {
                    "indexed": true,
                    "internalType": "string",
                    "name": "baseUri",
                    "type": "string"
                }
            ],
            "name": "BaseURIAdded",
            "type": "event"
        },
        {
            "anonymous": false,
            "inputs": [
                {
                    "indexed": true,
                    "internalType": "uint256",
                    "name": "baseURIId",
                    "type": "uint256"
                },
                {
                    "indexed": true,
                    "internalType": "string",
                    "name": "baseURI",
                    "type": "string"
                }
            ],
            "name": "BaseURIModified",
            "type": "event"
        },
        {
            "inputs": [
                {
                    "internalType": "string",
                    "name": "baseUri",
                    "type": "string"
                }
            ],
            "name": "addBaseURI",
            "outputs": [],
            "stateMutability": "nonpayable",
            "type": "function"
        },
        {
            "inputs": [
                {
                    "internalType": "uint256",
                    "name": "baseUriId",
                    "type": "uint256"
                }
            ],
            "name": "getBaseURI",
            "outputs": [
                {
                    "internalType": "string",
                    "name": "baseURI",
                    "type": "string"
                }
            ],
            "stateMutability": "view",
            "type": "function"
        },
        {
            "inputs": [
                {
                    "internalType": "uint256",
                    "name": "baseUriId",
                    "type": "uint256"
                },
                {
                    "internalType": "string",
                    "name": "baseUri",
                    "type": "string"
                }
            ],
            "name": "migrateBaseURI",
            "outputs": [],
            "stateMutability": "nonpayable",
            "type": "function"
        }
    ],
    "bytecode": "608060405234801561001057600080fd5b50610779806100206000396000f3fe608060405234801561001057600080fd5b50600436106100415760003560e01c806327cfa7d21461004657806338542c651461005b578063733763981461006e575b600080fd5b610059610054366004610534565b610097565b005b610059610069366004610587565b610153565b61008161007c36600461056f565b610312565b60405161008e91906105e8565b60405180910390f35b806040516100a591906105cc565b60405190819003812060015490917fd086063a9a7480742117a1605f9c23d3dcf2940d00249ffda4aac7fbfa08f01090600090a3604080518082018252828152336020808301919091526001546000908152808252929092208151805192939192610113928492019061041a565b5060209190910151600191820180546001600160a01b0319166001600160a01b03909216919091179055805490600061014b83610706565b919050555050565b6000828152602081905260408082208151808301909252805482908290610179906106cb565b80601f01602080910402602001604051908101604052809291908181526020018280546101a5906106cb565b80156101f25780601f106101c7576101008083540402835291602001916101f2565b820191906000526020600020905b8154815290600101906020018083116101d557829003601f168201915b5050509183525050600191909101546001600160a01b0316602090910152905061021b81610408565b6102405760405162461bcd60e51b815260040161023790610664565b60405180910390fd5b60208101516001600160a01b0316331461026c5760405162461bcd60e51b81526004016102379061061b565b8160405161027a91906105cc565b6040519081900381209084907f89737cf1a749249664a208d53ebc9ad1e6d3d2d84b40876efd70f8085bf9435390600090a36040805180820182528381523360208083019190915260008681528082529290922081518051929391926102e3928492019061041a565b5060209190910151600190910180546001600160a01b0319166001600160a01b03909216919091179055505050565b60606000806000848152602001908152602001600020604051806040016040529081600082018054610343906106cb565b80601f016020809104026020016040519081016040528092919081815260200182805461036f906106cb565b80156103bc5780601f10610391576101008083540402835291602001916103bc565b820191906000526020600020905b81548152906001019060200180831161039f57829003601f168201915b5050509183525050600191909101546001600160a01b031660209091015290506103e581610408565b6104015760405162461bcd60e51b815260040161023790610664565b5192915050565b602001516001600160a01b0316151590565b828054610426906106cb565b90600052602060002090601f016020900481019282610448576000855561048e565b82601f1061046157805160ff191683800117855561048e565b8280016001018555821561048e579182015b8281111561048e578251825591602001919060010190610473565b5061049a92915061049e565b5090565b5b8082111561049a576000815560010161049f565b600082601f8301126104c3578081fd5b813567ffffffffffffffff808211156104de576104de61072d565b604051601f8301601f1916810160200182811182821017156105025761050261072d565b604052828152848301602001861015610519578384fd5b82602086016020830137918201602001929092529392505050565b600060208284031215610545578081fd5b813567ffffffffffffffff81111561055b578182fd5b610567848285016104b3565b949350505050565b600060208284031215610580578081fd5b5035919050565b60008060408385031215610599578081fd5b82359150602083013567ffffffffffffffff8111156105b6578182fd5b6105c2858286016104b3565b9150509250929050565b600082516105de81846020870161069b565b9190910192915050565b600060208252825180602084015261060781604085016020870161069b565b601f01601f19169190910160400192915050565b60208082526029908201527f4f6e6c79206f776e6572206f662074686520555249206d6179206d696772617460408201526865207468652055524960b81b606082015260800190565b60208082526017908201527f426173652055524920646f6573206e6f74206578697374000000000000000000604082015260600190565b60005b838110156106b657818101518382015260200161069e565b838111156106c5576000848401525b50505050565b6002810460018216806106df57607f821691505b6020821081141561070057634e487b7160e01b600052602260045260246000fd5b50919050565b600060001982141561072657634e487b7160e01b81526011600452602481fd5b5060010190565b634e487b7160e01b600052604160045260246000fdfea2646970667358221220720ef8b5fc3ec62f87510cf30e65c028fe4cd943cb8acad2afb26ad3de264ef364736f6c63430008000033",
    "sourcePath": "/Users/jingsongdu/Documents/core/contracts/Inscribe.sol",
    "compiler": {
        "name": "solc",
        "version": "0.8.0+commit.c7dfd78e"
    },
    "functionHashes": {
        "addBaseURI(string)": "27cfa7d2",
        "getBaseURI(uint256)": "73376398",
        "migrateBaseURI(uint256,string)": "38542c65"
    },
    "gasEstimates": {
        "creation": {
            "codeDepositCost": "382600",
            "executionCost": "418",
            "totalCost": "383018"
        },
        "external": {
            "addBaseURI(string)": "infinite",
            "getBaseURI(uint256)": "infinite",
            "migrateBaseURI(uint256,string)": "infinite"
        },
        "internal": {
            "_baseURIExists(struct InscribeMetadata.BaseURI memory)": "infinite"
        }
    }
}