{
    "contractName": "Inscribe",
    "abi": [
        {
            "inputs": [],
            "stateMutability": "nonpayable",
            "type": "constructor"
        },
        {
            "anonymous": false,
            "inputs": [
                {
                    "indexed": true,
                    "internalType": "address",
                    "name": "owner",
                    "type": "address"
                },
                {
                    "indexed": true,
                    "internalType": "address",
                    "name": "inscriber",
                    "type": "address"
                },
                {
                    "indexed": true,
                    "internalType": "address",
                    "name": "nftAddress",
                    "type": "address"
                },
                {
                    "indexed": false,
                    "internalType": "uint256",
                    "name": "tokenId",
                    "type": "uint256"
                }
            ],
            "name": "Approval",
            "type": "event"
        },
        {
            "anonymous": false,
            "inputs": [
                {
                    "indexed": true,
                    "internalType": "address",
                    "name": "owner",
                    "type": "address"
                },
                {
                    "indexed": true,
                    "internalType": "address",
                    "name": "operator",
                    "type": "address"
                },
                {
                    "indexed": false,
                    "internalType": "bool",
                    "name": "approved",
                    "type": "bool"
                }
            ],
            "name": "ApprovalForAll",
            "type": "event"
        },
        {
            "anonymous": false,
            "inputs": [
                {
                    "indexed": true,
                    "internalType": "uint256",
                    "name": "baseUriId",
                    "type": "uint256"
                },
                {
                    "indexed": true,
                    "internalType": "string",
                    "name": "baseUri",
                    "type": "string"
                }
            ],
            "name": "BaseURIAdded",
            "type": "event"
        },
        {
            "anonymous": false,
            "inputs": [
                {
                    "indexed": true,
                    "internalType": "uint256",
                    "name": "baseURIId",
                    "type": "uint256"
                },
                {
                    "indexed": true,
                    "internalType": "string",
                    "name": "baseURI",
                    "type": "string"
                }
            ],
            "name": "BaseURIModified",
            "type": "event"
        },
        {
            "anonymous": false,
            "inputs": [
                {
                    "indexed": true,
                    "internalType": "uint256",
                    "name": "inscriptionId",
                    "type": "uint256"
                },
                {
                    "indexed": true,
                    "internalType": "address",
                    "name": "nftAddress",
                    "type": "address"
                },
                {
                    "indexed": false,
                    "internalType": "uint256",
                    "name": "tokenId",
                    "type": "uint256"
                },
                {
                    "indexed": true,
                    "internalType": "address",
                    "name": "inscriber",
                    "type": "address"
                },
                {
                    "indexed": false,
                    "internalType": "bytes32",
                    "name": "contentHash",
                    "type": "bytes32"
                }
            ],
            "name": "InscriptionAdded",
            "type": "event"
        },
        {
            "anonymous": false,
            "inputs": [
                {
                    "indexed": true,
                    "internalType": "uint256",
                    "name": "inscriptionId",
                    "type": "uint256"
                },
                {
                    "indexed": true,
                    "internalType": "address",
                    "name": "nftAddress",
                    "type": "address"
                },
                {
                    "indexed": false,
                    "internalType": "uint256",
                    "name": "tokenId",
                    "type": "uint256"
                },
                {
                    "indexed": true,
                    "internalType": "address",
                    "name": "inscriber",
                    "type": "address"
                }
            ],
            "name": "InscriptionRemoved",
            "type": "event"
        },
        {
            "inputs": [],
            "name": "ADD_INSCRIPTION_TYPEHASH",
            "outputs": [
                {
                    "internalType": "bytes32",
                    "name": "",
                    "type": "bytes32"
                }
            ],
            "stateMutability": "view",
            "type": "function"
        },
        {
            "inputs": [
                {
                    "internalType": "string",
                    "name": "baseUri",
                    "type": "string"
                }
            ],
            "name": "addBaseURI",
            "outputs": [],
            "stateMutability": "nonpayable",
            "type": "function"
        },
        {
            "inputs": [
                {
                    "internalType": "address",
                    "name": "nftAddress",
                    "type": "address"
                },
                {
                    "internalType": "uint256",
                    "name": "tokenId",
                    "type": "uint256"
                },
                {
                    "internalType": "address",
                    "name": "inscriber",
                    "type": "address"
                },
                {
                    "internalType": "bytes32",
                    "name": "contentHash",
                    "type": "bytes32"
                },
                {
                    "internalType": "uint256",
                    "name": "baseUriId",
                    "type": "uint256"
                },
                {
                    "internalType": "uint256",
                    "name": "nonce",
                    "type": "uint256"
                },
                {
                    "internalType": "bytes",
                    "name": "sig",
                    "type": "bytes"
                }
            ],
            "name": "addInscriptionWithBaseUriId",
            "outputs": [],
            "stateMutability": "nonpayable",
            "type": "function"
        },
        {
            "inputs": [
                {
                    "internalType": "address",
                    "name": "nftAddress",
                    "type": "address"
                },
                {
                    "internalType": "uint256",
                    "name": "tokenId",
                    "type": "uint256"
                },
                {
                    "internalType": "address",
                    "name": "inscriber",
                    "type": "address"
                },
                {
                    "internalType": "bytes32",
                    "name": "contentHash",
                    "type": "bytes32"
                },
                {
                    "internalType": "string",
                    "name": "inscriptionURI",
                    "type": "string"
                },
                {
                    "internalType": "uint256",
                    "name": "nonce",
                    "type": "uint256"
                },
                {
                    "internalType": "bytes",
                    "name": "sig",
                    "type": "bytes"
                }
            ],
            "name": "addInscriptionWithInscriptioniUri",
            "outputs": [],
            "stateMutability": "nonpayable",
            "type": "function"
        },
        {
            "inputs": [
                {
                    "internalType": "address",
                    "name": "nftAddress",
                    "type": "address"
                },
                {
                    "internalType": "uint256",
                    "name": "tokenId",
                    "type": "uint256"
                },
                {
                    "internalType": "bytes32",
                    "name": "contentHash",
                    "type": "bytes32"
                },
                {
                    "internalType": "uint256",
                    "name": "baseUriId",
                    "type": "uint256"
                }
            ],
            "name": "addInscriptionWithNoSig",
            "outputs": [],
            "stateMutability": "nonpayable",
            "type": "function"
        },
        {
            "inputs": [
                {
                    "internalType": "address",
                    "name": "to",
                    "type": "address"
                },
                {
                    "internalType": "address",
                    "name": "nftAddress",
                    "type": "address"
                },
                {
                    "internalType": "uint256",
                    "name": "tokenId",
                    "type": "uint256"
                }
            ],
            "name": "approve",
            "outputs": [],
            "stateMutability": "nonpayable",
            "type": "function"
        },
        {
            "inputs": [],
            "name": "domainSeparator",
            "outputs": [
                {
                    "internalType": "bytes32",
                    "name": "",
                    "type": "bytes32"
                }
            ],
            "stateMutability": "view",
            "type": "function"
        },
        {
            "inputs": [
                {
                    "internalType": "address",
                    "name": "nftAddress",
                    "type": "address"
                },
                {
                    "internalType": "uint256",
                    "name": "tokenId",
                    "type": "uint256"
                }
            ],
            "name": "getApproved",
            "outputs": [
                {
                    "internalType": "address",
                    "name": "",
                    "type": "address"
                }
            ],
            "stateMutability": "view",
            "type": "function"
        },
        {
            "inputs": [
                {
                    "internalType": "uint256",
                    "name": "baseUriId",
                    "type": "uint256"
                }
            ],
            "name": "getBaseURI",
            "outputs": [
                {
                    "internalType": "string",
                    "name": "baseURI",
                    "type": "string"
                }
            ],
            "stateMutability": "view",
            "type": "function"
        },
        {
            "inputs": [
                {
                    "internalType": "uint256",
                    "name": "inscriptionId",
                    "type": "uint256"
                }
            ],
            "name": "getInscriber",
            "outputs": [
                {
                    "internalType": "address",
                    "name": "",
                    "type": "address"
                }
            ],
            "stateMutability": "view",
            "type": "function"
        },
        {
            "inputs": [
                {
                    "internalType": "uint256",
                    "name": "inscriptionId",
                    "type": "uint256"
                }
            ],
            "name": "getInscriptionURI",
            "outputs": [
                {
                    "internalType": "string",
                    "name": "inscriptionURI",
                    "type": "string"
                }
            ],
            "stateMutability": "view",
            "type": "function"
        },
        {
            "inputs": [
                {
                    "internalType": "address",
                    "name": "owner",
                    "type": "address"
                },
                {
                    "internalType": "address",
                    "name": "operator",
                    "type": "address"
                }
            ],
            "name": "isApprovedForAll",
            "outputs": [
                {
                    "internalType": "bool",
                    "name": "",
                    "type": "bool"
                }
            ],
            "stateMutability": "view",
            "type": "function"
        },
        {
            "inputs": [
                {
                    "internalType": "uint256",
                    "name": "baseUriId",
                    "type": "uint256"
                },
                {
                    "internalType": "string",
                    "name": "baseUri",
                    "type": "string"
                }
            ],
            "name": "migrateBaseURI",
            "outputs": [],
            "stateMutability": "nonpayable",
            "type": "function"
        },
        {
            "inputs": [
                {
                    "internalType": "uint256",
                    "name": "inscriptionId",
                    "type": "uint256"
                },
                {
                    "internalType": "string",
                    "name": "inscriptionURI",
                    "type": "string"
                },
                {
                    "internalType": "address",
                    "name": "nftAddress",
                    "type": "address"
                },
                {
                    "internalType": "uint256",
                    "name": "tokenId",
                    "type": "uint256"
                }
            ],
            "name": "migrateURI",
            "outputs": [],
            "stateMutability": "nonpayable",
            "type": "function"
        },
        {
            "inputs": [
                {
                    "internalType": "uint256",
                    "name": "inscriptionId",
                    "type": "uint256"
                },
                {
                    "internalType": "uint256",
                    "name": "baseUriId",
                    "type": "uint256"
                },
                {
                    "internalType": "address",
                    "name": "nftAddress",
                    "type": "address"
                },
                {
                    "internalType": "uint256",
                    "name": "tokenId",
                    "type": "uint256"
                }
            ],
            "name": "migrateURI",
            "outputs": [],
            "stateMutability": "nonpayable",
            "type": "function"
        },
        {
            "inputs": [
                {
                    "internalType": "uint256",
                    "name": "inscriptionId",
                    "type": "uint256"
                },
                {
                    "internalType": "address",
                    "name": "nftAddress",
                    "type": "address"
                },
                {
                    "internalType": "uint256",
                    "name": "tokenId",
                    "type": "uint256"
                }
            ],
            "name": "removeInscription",
            "outputs": [],
            "stateMutability": "nonpayable",
            "type": "function"
        },
        {
            "inputs": [
                {
                    "internalType": "address",
                    "name": "operator",
                    "type": "address"
                },
                {
                    "internalType": "bool",
                    "name": "approved",
                    "type": "bool"
                }
            ],
            "name": "setApprovalForAll",
            "outputs": [],
            "stateMutability": "nonpayable",
            "type": "function"
        },
        {
            "inputs": [
                {
                    "internalType": "uint256",
                    "name": "inscriptionId",
                    "type": "uint256"
                },
                {
                    "internalType": "address",
                    "name": "nftAddress",
                    "type": "address"
                },
                {
                    "internalType": "uint256",
                    "name": "tokenId",
                    "type": "uint256"
                }
            ],
            "name": "verifyInscription",
            "outputs": [
                {
                    "internalType": "bool",
                    "name": "",
                    "type": "bool"
                }
            ],
            "stateMutability": "view",
            "type": "function"
        }
    ],
    "bytecode": "60a060405234801561001057600080fd5b506001808055600881815560408051808201825291825267496e73637269626560c01b60209283015280518082018252928352603160f81b92820192909252905146916100c7917f8b73c3c69bb8fe3d512ecc4cf759cc79239f7b179b0ffacaa9a75d522b39400f917f181fd12fd4580400368d8953eca1bf472ee233e7e06245d1ef8c176ff12bd3c4917fc89efdaa54c0f20c7adf612882df0950f5a951637e0307cdcb4c672f298b8bc69186913091016100e8565b60408051601f19818403018152919052805160209091012060805250610114565b9485526020850193909352604084019190915260608301526001600160a01b0316608082015260a00190565b6080516122a061013660003960008181610fd7015261132e01526122a06000f3fe608060405234801561001057600080fd5b50600436106101165760003560e01c80639053012c116100a2578063df5bc84111610071578063df5bc84114610237578063e1f21c6714610257578063e985e9c51461026a578063f0ed9be31461027d578063f698da251461029257610116565b80639053012c146101eb57806397bb48eb146101fe578063a22cb46514610211578063d575aa1c1461022457610116565b80634910cac1116100e95780634910cac11461018c5780635b44658a1461019f57806373376398146101b257806383ef1e37146101c55780638443e0af146101d857610116565b8063098f23661461011b57806327cfa7d21461014457806338542c651461015957806345969d711461016c575b600080fd5b61012e610129366004611913565b61029a565b60405161013b9190611c97565b60405180910390f35b610157610152366004611ab6565b6102c2565b005b610157610167366004611b8c565b61037e565b61017f61017a366004611ae9565b61053d565b60405161013b9190611d09565b61012e61019a366004611ae9565b61072e565b6101576101ad366004611a7c565b610769565b61017f6101c0366004611ae9565b6108c3565b6101576101d3366004611b01565b6109b9565b6101576101e6366004611b27565b610a3c565b6101576101f9366004611bd1565b610add565b61015761020c3660046119ef565b610b7a565b61015761021f3660046118e2565b610d3d565b61015761023236600461193e565b610dd5565b61024a610245366004611b01565b610e95565b60405161013b9190611cab565b6101576102653660046118a2565b610eda565b61024a61027836600461186a565b610f83565b610285610fb1565b60405161013b9190611cb6565b610285610fd5565b6001600160a01b03918216600090815260066020908152604080832093835292905220541690565b806040516102d09190611c31565b60405190819003812060015490917fd086063a9a7480742117a1605f9c23d3dcf2940d00249ffda4aac7fbfa08f01090600090a360408051808201825282815233602080830191909152600154600090815280825292909220815180519293919261033e928492019061163a565b5060209190910151600191820180546001600160a01b0319166001600160a01b039092169190911790558054906000610376836121e4565b919050555050565b60008281526020819052604080822081518083019092528054829082906103a4906121af565b80601f01602080910402602001604051908101604052809291908181526020018280546103d0906121af565b801561041d5780601f106103f25761010080835404028352916020019161041d565b820191906000526020600020905b81548152906001019060200180831161040057829003601f168201915b5050509183525050600191909101546001600160a01b0316602090910152905061044681610ff9565b61046b5760405162461bcd60e51b815260040161046290611f85565b60405180910390fd5b60208101516001600160a01b031633146104975760405162461bcd60e51b815260040161046290611e9a565b816040516104a59190611c31565b6040519081900381209084907f89737cf1a749249664a208d53ebc9ad1e6d3d2d84b40876efd70f8085bf9435390600090a360408051808201825283815233602080830191909152600086815280825292909220815180519293919261050e928492019061163a565b5060209190910151600190910180546001600160a01b0319166001600160a01b03909216919091179055505050565b60606105488261100b565b6105645760405162461bcd60e51b815260040161046290611daa565b600082815260046020526040902054806106175760008381526005602052604090208054610591906121af565b80601f01602080910402602001604051908101604052809291908181526020018280546105bd906121af565b801561060a5780601f106105df5761010080835404028352916020019161060a565b820191906000526020600020905b8154815290600101906020018083116105ed57829003601f168201915b5050505050915050610729565b600081815260208190526040808220815180830190925280548290829061063d906121af565b80601f0160208091040260200160405190810160405280929190818152602001828054610669906121af565b80156106b65780601f1061068b576101008083540402835291602001916106b6565b820191906000526020600020905b81548152906001019060200180831161069957829003601f168201915b5050509183525050600191909101546001600160a01b031660209091015290506106df81610ff9565b6106fb5760405162461bcd60e51b815260040161046290611f85565b805161070685611028565b604051602001610717929190611c4d565b60408051601f1981840301905252505b505b919050565b6000818152600260205260408120546001600160a01b0316806107635760405162461bcd60e51b815260040161046290611daa565b92915050565b6001600160a01b03841661077c57600080fd5b8061078657600080fd5b61079133858561114b565b61079a57600080fd5b60008181526020819052604080822081518083019092528054829082906107c0906121af565b80601f01602080910402602001604051908101604052809291908181526020018280546107ec906121af565b80156108395780601f1061080e57610100808354040283529160200191610839565b820191906000526020600020905b81548152906001019060200180831161081c57829003601f168201915b5050509183525050600191909101546001600160a01b0316602090910152905061086281610ff9565b61087e5760405162461bcd60e51b815260040161046290611f85565b81600460006008548152602001908152602001600020819055506108a7858533866008546111d3565b600880549060006108b7836121e4565b91905055505050505050565b606060008060008481526020019081526020016000206040518060400160405290816000820180546108f4906121af565b80601f0160208091040260200160405190810160405280929190818152602001828054610920906121af565b801561096d5780601f106109425761010080835404028352916020019161096d565b820191906000526020600020905b81548152906001019060200180831161095057829003601f168201915b5050509183525050600191909101546001600160a01b0316602090910152905061099681610ff9565b6109b25760405162461bcd60e51b815260040161046290611f85565b5192915050565b6109c28361100b565b6109de5760405162461bcd60e51b815260040161046290611f40565b6109e9838383610e95565b610a055760405162461bcd60e51b8152600401610462906120a0565b610a1033838361114b565b610a2c5760405162461bcd60e51b81526004016104629061204e565b610a37838383611284565b505050565b610a458561100b565b610a615760405162461bcd60e51b815260040161046290611f40565b610a6c858383610e95565b610a885760405162461bcd60e51b8152600401610462906120a0565b610a9333838361114b565b610aaf5760405162461bcd60e51b81526004016104629061204e565b600085815260046020908152604080832083905560059091529020610ad59085856116be565b505050505050565b610ae68461100b565b610b025760405162461bcd60e51b815260040161046290611f40565b610b0d848383610e95565b610b295760405162461bcd60e51b8152600401610462906120a0565b610b3433838361114b565b610b505760405162461bcd60e51b81526004016104629061204e565b600084815260046020908152604080832086905560059091528120610b7491611732565b50505050565b6001600160a01b038616610b8d57600080fd5b6001600160a01b038816610ba057600080fd5b6000610bae8989888761132a565b9050610bfa610bf38285858080601f0160208091040260200160405190810160405280939291908181526020018383808284376000920191909152506113d092505050565b8a8a61114b565b610c165760405162461bcd60e51b8152600401610462906120ee565b6008546000868152602081905260408082208151808301909252805482908290610c3f906121af565b80601f0160208091040260200160405190810160405280929190818152602001828054610c6b906121af565b8015610cb85780601f10610c8d57610100808354040283529160200191610cb8565b820191906000526020600020905b815481529060010190602001808311610c9b57829003601f168201915b5050509183525050600191909101546001600160a01b03166020909101529050610ce181610ff9565b610cfd5760405162461bcd60e51b815260040161046290611f85565b6000828152600460205260409020879055610d1b8b8b8b8b866111d3565b60088054906000610d2b836121e4565b91905055505050505050505050505050565b6001600160a01b038216331415610d665760405162461bcd60e51b815260040161046290611e51565b3360008181526007602090815260408083206001600160a01b038716808552925291829020805460ff191685151517905590519091907f17307eab39ab6107e8899845ad3d59bd9653f200f220920489ca2b5937696c3190610dc9908590611cab565b60405180910390a35050565b6001600160a01b038716610de857600080fd5b6001600160a01b038916610dfb57600080fd5b6000610e098a8a898761132a565b9050610e55610e4e8285858080601f0160208091040260200160405190810160405280939291908181526020018383808284376000920191909152506113d092505050565b8b8b61114b565b610e5e57600080fd5b600854600081815260046020908152604080832083905560059091529020610e879088886116be565b50610d1b8b8b8b8b856111d3565b60008381526003602090815260408083205490519091610eb9918691869101611c0f565b60408051601f19818403018152919052805160209091012014949350505050565b6000610ee683836113f9565b90506001600160a01b038116610f0e5760405162461bcd60e51b815260040161046290611de1565b806001600160a01b0316846001600160a01b03161415610f405760405162461bcd60e51b815260040161046290611ee3565b336001600160a01b0382161480610f5c5750610f5c8133610f83565b610f785760405162461bcd60e51b815260040161046290611ffe565b610b7484848461147a565b6001600160a01b03918216600090815260076020908152604080832093909416825291909152205460ff1690565b7f6b7aae47ef1cd82bf33fbe47ef7d5d948c32a966662d56eb728bd4a5ed1082ea81565b7f000000000000000000000000000000000000000000000000000000000000000081565b602001516001600160a01b0316151590565b6000908152600260205260409020546001600160a01b0316151590565b60608161104d57506040805180820190915260018152600360fc1b6020820152610729565b8160005b81156110775780611061816121e4565b91506110709050600a83612158565b9150611051565b60008167ffffffffffffffff8111156110a057634e487b7160e01b600052604160045260246000fd5b6040519080825280601f01601f1916602001820160405280156110ca576020820181803683370190505b5090505b8415611143576110df60018361216c565b91506110ec600a866121ff565b6110f7906030612140565b60f81b81838151811061111a57634e487b7160e01b600052603260045260246000fd5b60200101906001600160f81b031916908160001a90535061113c600a86612158565b94506110ce565b949350505050565b60008061115884846113f9565b90506001600160a01b0381166111805760405162461bcd60e51b815260040161046290611de1565b806001600160a01b0316856001600160a01b031614806111ba5750846001600160a01b03166111af858561029a565b6001600160a01b0316145b806111ca57506111ca8186610f83565b95945050505050565b60008181526002602090815260409182902080546001600160a01b0319166001600160a01b038716179055905161120e918791879101611c0f565b60408051601f19818403018152828252805160209182012060008581526003909252919020556001600160a01b03808516919087169083907f26d3ffea55817c62dba8b29a48d1556ae5180bf0d48fe01bc28f7a34645032fa906112759089908890612132565b60405180910390a45050505050565b6112906000838361147a565b600083815260026020908152604080832080546001600160a01b0319811690915560038352818420849055600590925282206001600160a01b03909116916112d89190611732565b806001600160a01b0316836001600160a01b0316857f9f2d076e5b86e9e3938c6331fe03fa21d967dcd3f042fd2a87a6e6fc7a9f61188560405161131c9190611cb6565b60405180910390a450505050565b60007f00000000000000000000000000000000000000000000000000000000000000007f6b7aae47ef1cd82bf33fbe47ef7d5d948c32a966662d56eb728bd4a5ed1082ea60001b86868686604051602001611389959493929190611cbf565b604051602081830303815290604052805190602001206040516020016113b0929190611c7c565b604051602081830303815290604052805190602001209050949350505050565b6000806113dd8484611502565b90506001600160a01b0381166113f257600080fd5b9392505050565b6040516331a9108f60e11b815260009083906001600160a01b03821690636352211e9061142a908690600401611cb6565b60206040518083038186803b15801561144257600080fd5b505afa158015611456573d6000803e3d6000fd5b505050506040513d601f19601f82011682018060405250810190611143919061184e565b6001600160a01b038281166000818152600660209081526040808320868452909152902080546001600160a01b0319169286169283179055906114bd84846113f9565b6001600160a01b03167fa0175360a15bca328baf7ea85c7b784d58b222a50d0ce760b10dba336d226a61846040516114f59190611cb6565b60405180910390a4505050565b600081516041146115255760405162461bcd60e51b815260040161046290611d73565b60208201516040830151606084015160001a6115438682858561154d565b9695505050505050565b60007f7fffffffffffffffffffffffffffffff5d576e7357a4501ddfe92f46681b20a082111561158f5760405162461bcd60e51b815260040161046290611e0f565b8360ff16601b14806115a457508360ff16601c145b6115c05760405162461bcd60e51b815260040161046290611fbc565b6000600186868686604051600081526020016040526040516115e59493929190611ceb565b6020604051602081039080840390855afa158015611607573d6000803e3d6000fd5b5050604051601f1901519150506001600160a01b0381166111ca5760405162461bcd60e51b815260040161046290611d3c565b828054611646906121af565b90600052602060002090601f01602090048101928261166857600085556116ae565b82601f1061168157805160ff19168380011785556116ae565b828001600101855582156116ae579182015b828111156116ae578251825591602001919060010190611693565b506116ba929150611771565b5090565b8280546116ca906121af565b90600052602060002090601f0160209004810192826116ec57600085556116ae565b82601f106117055782800160ff198235161785556116ae565b828001600101855582156116ae579182015b828111156116ae578235825591602001919060010190611717565b50805461173e906121af565b6000825580601f10611750575061176e565b601f01602090049060005260206000209081019061176e9190611771565b50565b5b808211156116ba5760008155600101611772565b60008083601f840112611797578182fd5b50813567ffffffffffffffff8111156117ae578182fd5b6020830191508360208285010111156117c657600080fd5b9250929050565b600082601f8301126117dd578081fd5b813567ffffffffffffffff808211156117f8576117f861223f565b604051601f8301601f19168101602001828111828210171561181c5761181c61223f565b604052828152848301602001861015611833578384fd5b82602086016020830137918201602001929092529392505050565b60006020828403121561185f578081fd5b81516113f281612255565b6000806040838503121561187c578081fd5b823561188781612255565b9150602083013561189781612255565b809150509250929050565b6000806000606084860312156118b6578081fd5b83356118c181612255565b925060208401356118d181612255565b929592945050506040919091013590565b600080604083850312156118f4578182fd5b82356118ff81612255565b915060208301358015158114611897578182fd5b60008060408385031215611925578182fd5b823561193081612255565b946020939093013593505050565b600080600080600080600080600060e08a8c03121561195b578485fd5b893561196681612255565b985060208a0135975060408a013561197d81612255565b965060608a0135955060808a013567ffffffffffffffff808211156119a0578687fd5b6119ac8d838e01611786565b909750955060a08c0135945060c08c01359150808211156119cb578384fd5b506119d88c828d01611786565b915080935050809150509295985092959850929598565b60008060008060008060008060e0898b031215611a0a578384fd5b8835611a1581612255565b9750602089013596506040890135611a2c81612255565b9550606089013594506080890135935060a0890135925060c089013567ffffffffffffffff811115611a5c578283fd5b611a688b828c01611786565b999c989b5096995094979396929594505050565b60008060008060808587031215611a91578384fd5b8435611a9c81612255565b966020860135965060408601359560600135945092505050565b600060208284031215611ac7578081fd5b813567ffffffffffffffff811115611add578182fd5b611143848285016117cd565b600060208284031215611afa578081fd5b5035919050565b600080600060608486031215611b15578081fd5b8335925060208401356118d181612255565b600080600080600060808688031215611b3e578283fd5b85359450602086013567ffffffffffffffff811115611b5b578384fd5b611b6788828901611786565b9095509350506040860135611b7b81612255565b949793965091946060013592915050565b60008060408385031215611b9e578182fd5b82359150602083013567ffffffffffffffff811115611bbb578182fd5b611bc7858286016117cd565b9150509250929050565b60008060008060808587031215611be6578182fd5b84359350602085013592506040850135611bff81612255565b9396929550929360600135925050565b60609290921b6bffffffffffffffffffffffff19168252601482015260340190565b60008251611c43818460208701612183565b9190910192915050565b60008351611c5f818460208801612183565b835190830190611c73818360208801612183565b01949350505050565b61190160f01b81526002810192909252602282015260420190565b6001600160a01b0391909116815260200190565b901515815260200190565b90815260200190565b9485526001600160a01b0393909316602085015260408401919091526060830152608082015260a00190565b93845260ff9290921660208401526040830152606082015260800190565b6000602082528251806020840152611d28816040850160208701612183565b601f01601f19169190910160400192915050565b60208082526018908201527f45434453413a20696e76616c6964207369676e61747572650000000000000000604082015260600190565b6020808252601f908201527f45434453413a20696e76616c6964207369676e6174757265206c656e67746800604082015260600190565b6020808252601a908201527f496e736372697074696f6e20646f6573206e6f74206578697374000000000000604082015260600190565b602080825260149082015273139bdb995e1a5cdd195b9d081d1bdad95b88125160621b604082015260600190565b60208082526022908201527f45434453413a20696e76616c6964207369676e6174757265202773272076616c604082015261756560f01b606082015260800190565b60208082526029908201527f4f70657261746f722063616e6e6f74206265207468652073616d65206173207460408201526834329031b0b63632b960b91b606082015260800190565b60208082526029908201527f4f6e6c79206f776e6572206f662074686520555249206d6179206d696772617460408201526865207468652055524960b81b606082015260800190565b6020808252603e908201527f43616e6e6f7420617070726f7665207468652027746f2720616464726573732060408201527f61732069742062656c6f6e677320746f20746865206e6674206f776e65720000606082015260800190565b60208082526025908201527f496e736372697074696f6e20646f6573206e6f742065786973742061742074686040820152641a5cc8125160da1b606082015260800190565b60208082526017908201527f426173652055524920646f6573206e6f74206578697374000000000000000000604082015260600190565b60208082526022908201527f45434453413a20696e76616c6964207369676e6174757265202776272076616c604082015261756560f01b606082015260800190565b60208082526030908201527f417070726f76652063616c6c6572206973206e6f74206f776e6572206e6f722060408201526f185c1c1c9bdd995908199bdc88185b1b60821b606082015260800190565b60208082526032908201527f43616c6c657220646f6573206e6f74206f776e20696e736372697074696f6e206040820152711bdc881a5cc81b9bdd08185c1c1c9bdd995960721b606082015260800190565b6020808252602e908201527f5665726966696573206e66744164647265737320616e6420746f6b656e49642060408201526d617265206c65676974696d61746560901b606082015260800190565b60208082526024908201527f496e736372697074696f6e20646f6573206e6f742062656c6f6e6720746f206f6040820152633bb732b960e11b606082015260800190565b918252602082015260400190565b6000821982111561215357612153612213565b500190565b60008261216757612167612229565b500490565b60008282101561217e5761217e612213565b500390565b60005b8381101561219e578181015183820152602001612186565b83811115610b745750506000910152565b6002810460018216806121c357607f821691505b6020821081141561072757634e487b7160e01b600052602260045260246000fd5b60006000198214156121f8576121f8612213565b5060010190565b60008261220e5761220e612229565b500690565b634e487b7160e01b600052601160045260246000fd5b634e487b7160e01b600052601260045260246000fd5b634e487b7160e01b600052604160045260246000fd5b6001600160a01b038116811461176e57600080fdfea2646970667358221220ddb29458389dc038393f170facbd05defd7ede575ba7255ee2b92d74ff9eb8c264736f6c63430008000033",
    "sourcePath": "/Users/jingsongdu/Documents/core/contracts/Inscribe.sol",
    "compiler": {
        "name": "solc",
        "version": "0.8.0+commit.c7dfd78e"
    },
    "functionHashes": {
        "ADD_INSCRIPTION_TYPEHASH()": "f0ed9be3",
        "addBaseURI(string)": "27cfa7d2",
        "addInscriptionWithBaseUriId(address,uint256,address,bytes32,uint256,uint256,bytes)": "97bb48eb",
        "addInscriptionWithInscriptioniUri(address,uint256,address,bytes32,string,uint256,bytes)": "d575aa1c",
        "addInscriptionWithNoSig(address,uint256,bytes32,uint256)": "5b44658a",
        "approve(address,address,uint256)": "e1f21c67",
        "domainSeparator()": "f698da25",
        "getApproved(address,uint256)": "098f2366",
        "getBaseURI(uint256)": "73376398",
        "getInscriber(uint256)": "4910cac1",
        "getInscriptionURI(uint256)": "45969d71",
        "isApprovedForAll(address,address)": "e985e9c5",
        "migrateBaseURI(uint256,string)": "38542c65",
        "migrateURI(uint256,string,address,uint256)": "8443e0af",
        "migrateURI(uint256,uint256,address,uint256)": "9053012c",
        "removeInscription(uint256,address,uint256)": "83ef1e37",
        "setApprovalForAll(address,bool)": "a22cb465",
        "verifyInscription(uint256,address,uint256)": "df5bc841"
    },
    "gasEstimates": {
        "creation": {
            "codeDepositCost": "1772800",
            "executionCost": "infinite",
            "totalCost": "infinite"
        },
        "external": {
            "ADD_INSCRIPTION_TYPEHASH()": "316",
            "addBaseURI(string)": "infinite",
            "addInscriptionWithBaseUriId(address,uint256,address,bytes32,uint256,uint256,bytes)": "infinite",
            "addInscriptionWithInscriptioniUri(address,uint256,address,bytes32,string,uint256,bytes)": "infinite",
            "addInscriptionWithNoSig(address,uint256,bytes32,uint256)": "infinite",
            "approve(address,address,uint256)": "infinite",
            "domainSeparator()": "infinite",
            "getApproved(address,uint256)": "1411",
            "getBaseURI(uint256)": "infinite",
            "getInscriber(uint256)": "1276",
            "getInscriptionURI(uint256)": "infinite",
            "isApprovedForAll(address,address)": "infinite",
            "migrateBaseURI(uint256,string)": "infinite",
            "migrateURI(uint256,string,address,uint256)": "infinite",
            "migrateURI(uint256,uint256,address,uint256)": "infinite",
            "removeInscription(uint256,address,uint256)": "infinite",
            "setApprovalForAll(address,bool)": "23322",
            "verifyInscription(uint256,address,uint256)": "1563"
        },
        "internal": {
            "_addInscription(address,uint256,address,bytes32,uint256)": "infinite",
            "_approve(address,address,uint256)": "infinite",
            "_generateAddInscriptionHash(address,uint256,bytes32,uint256)": "infinite",
            "_inscriptionExists(uint256)": "911",
            "_isApprovedOrOwner(address,address,uint256)": "infinite",
            "_ownerOf(address,uint256)": "infinite",
            "_recoverSigner(bytes32,bytes memory)": "infinite",
            "_removeInscription(uint256,address,uint256)": "infinite"
        }
    }
}