{
    "contractName": "Inscribe",
    "abi": [
        {
            "inputs": [],
            "stateMutability": "nonpayable",
            "type": "constructor"
        },
        {
            "anonymous": false,
            "inputs": [
                {
                    "indexed": true,
                    "internalType": "address",
                    "name": "owner",
                    "type": "address"
                },
                {
                    "indexed": true,
                    "internalType": "address",
                    "name": "inscriber",
                    "type": "address"
                },
                {
                    "indexed": true,
                    "internalType": "address",
                    "name": "nftAddress",
                    "type": "address"
                },
                {
                    "indexed": false,
                    "internalType": "uint256",
                    "name": "tokenId",
                    "type": "uint256"
                }
            ],
            "name": "Approval",
            "type": "event"
        },
        {
            "anonymous": false,
            "inputs": [
                {
                    "indexed": true,
                    "internalType": "address",
                    "name": "owner",
                    "type": "address"
                },
                {
                    "indexed": true,
                    "internalType": "address",
                    "name": "operator",
                    "type": "address"
                },
                {
                    "indexed": false,
                    "internalType": "bool",
                    "name": "approved",
                    "type": "bool"
                }
            ],
            "name": "ApprovalForAll",
            "type": "event"
        },
        {
            "anonymous": false,
            "inputs": [
                {
                    "indexed": true,
                    "internalType": "uint256",
                    "name": "baseUriId",
                    "type": "uint256"
                },
                {
                    "indexed": true,
                    "internalType": "string",
                    "name": "baseUri",
                    "type": "string"
                }
            ],
            "name": "BaseURIAdded",
            "type": "event"
        },
        {
            "anonymous": false,
            "inputs": [
                {
                    "indexed": true,
                    "internalType": "uint256",
                    "name": "baseURIId",
                    "type": "uint256"
                },
                {
                    "indexed": true,
                    "internalType": "string",
                    "name": "baseURI",
                    "type": "string"
                }
            ],
            "name": "BaseURIModified",
            "type": "event"
        },
        {
            "anonymous": false,
            "inputs": [
                {
                    "indexed": true,
                    "internalType": "uint256",
                    "name": "inscriptionId",
                    "type": "uint256"
                },
                {
                    "indexed": true,
                    "internalType": "address",
                    "name": "nftAddress",
                    "type": "address"
                },
                {
                    "indexed": false,
                    "internalType": "uint256",
                    "name": "tokenId",
                    "type": "uint256"
                },
                {
                    "indexed": true,
                    "internalType": "address",
                    "name": "inscriber",
                    "type": "address"
                },
                {
                    "indexed": false,
                    "internalType": "bytes32",
                    "name": "contentHash",
                    "type": "bytes32"
                }
            ],
            "name": "InscriptionAdded",
            "type": "event"
        },
        {
            "anonymous": false,
            "inputs": [
                {
                    "indexed": true,
                    "internalType": "uint256",
                    "name": "inscriptionId",
                    "type": "uint256"
                },
                {
                    "indexed": true,
                    "internalType": "address",
                    "name": "nftAddress",
                    "type": "address"
                },
                {
                    "indexed": false,
                    "internalType": "uint256",
                    "name": "tokenId",
                    "type": "uint256"
                },
                {
                    "indexed": true,
                    "internalType": "address",
                    "name": "inscriber",
                    "type": "address"
                }
            ],
            "name": "InscriptionRemoved",
            "type": "event"
        },
        {
            "inputs": [],
            "name": "ADD_INSCRIPTION_TYPEHASH",
            "outputs": [
                {
                    "internalType": "bytes32",
                    "name": "",
                    "type": "bytes32"
                }
            ],
            "stateMutability": "view",
            "type": "function"
        },
        {
            "inputs": [
                {
                    "internalType": "string",
                    "name": "baseUri",
                    "type": "string"
                }
            ],
            "name": "addBaseURI",
            "outputs": [],
            "stateMutability": "nonpayable",
            "type": "function"
        },
        {
            "inputs": [
                {
                    "internalType": "address",
                    "name": "nftAddress",
                    "type": "address"
                },
                {
                    "internalType": "uint256",
                    "name": "tokenId",
                    "type": "uint256"
                },
                {
                    "internalType": "address",
                    "name": "inscriber",
                    "type": "address"
                },
                {
                    "internalType": "bytes32",
                    "name": "contentHash",
                    "type": "bytes32"
                },
                {
                    "internalType": "uint256",
                    "name": "baseUriId",
                    "type": "uint256"
                },
                {
                    "internalType": "uint256",
                    "name": "nonce",
                    "type": "uint256"
                },
                {
                    "internalType": "bytes",
                    "name": "sig",
                    "type": "bytes"
                }
            ],
            "name": "addInscriptionWithBaseUriId",
            "outputs": [],
            "stateMutability": "nonpayable",
            "type": "function"
        },
        {
            "inputs": [
                {
                    "internalType": "address",
                    "name": "nftAddress",
                    "type": "address"
                },
                {
                    "internalType": "uint256",
                    "name": "tokenId",
                    "type": "uint256"
                },
                {
                    "internalType": "address",
                    "name": "inscriber",
                    "type": "address"
                },
                {
                    "internalType": "bytes32",
                    "name": "contentHash",
                    "type": "bytes32"
                },
                {
                    "internalType": "string",
                    "name": "inscriptionURI",
                    "type": "string"
                },
                {
                    "internalType": "uint256",
                    "name": "nonce",
                    "type": "uint256"
                },
                {
                    "internalType": "bytes",
                    "name": "sig",
                    "type": "bytes"
                }
            ],
            "name": "addInscriptionWithInscriptionUri",
            "outputs": [],
            "stateMutability": "nonpayable",
            "type": "function"
        },
        {
            "inputs": [
                {
                    "internalType": "address",
                    "name": "nftAddress",
                    "type": "address"
                },
                {
                    "internalType": "uint256",
                    "name": "tokenId",
                    "type": "uint256"
                },
                {
                    "internalType": "bytes32",
                    "name": "contentHash",
                    "type": "bytes32"
                },
                {
                    "internalType": "uint256",
                    "name": "baseUriId",
                    "type": "uint256"
                }
            ],
            "name": "addInscriptionWithNoSig",
            "outputs": [],
            "stateMutability": "nonpayable",
            "type": "function"
        },
        {
            "inputs": [
                {
                    "internalType": "address",
                    "name": "to",
                    "type": "address"
                },
                {
                    "internalType": "address",
                    "name": "nftAddress",
                    "type": "address"
                },
                {
                    "internalType": "uint256",
                    "name": "tokenId",
                    "type": "uint256"
                }
            ],
            "name": "approve",
            "outputs": [],
            "stateMutability": "nonpayable",
            "type": "function"
        },
        {
            "inputs": [],
            "name": "domainSeparator",
            "outputs": [
                {
                    "internalType": "bytes32",
                    "name": "",
                    "type": "bytes32"
                }
            ],
            "stateMutability": "view",
            "type": "function"
        },
        {
            "inputs": [
                {
                    "internalType": "address",
                    "name": "nftAddress",
                    "type": "address"
                },
                {
                    "internalType": "uint256",
                    "name": "tokenId",
                    "type": "uint256"
                }
            ],
            "name": "getApproved",
            "outputs": [
                {
                    "internalType": "address",
                    "name": "",
                    "type": "address"
                }
            ],
            "stateMutability": "view",
            "type": "function"
        },
        {
            "inputs": [
                {
                    "internalType": "uint256",
                    "name": "baseUriId",
                    "type": "uint256"
                }
            ],
            "name": "getBaseURI",
            "outputs": [
                {
                    "internalType": "string",
                    "name": "baseURI",
                    "type": "string"
                }
            ],
            "stateMutability": "view",
            "type": "function"
        },
        {
            "inputs": [
                {
                    "internalType": "uint256",
                    "name": "inscriptionId",
                    "type": "uint256"
                }
            ],
            "name": "getInscriber",
            "outputs": [
                {
                    "internalType": "address",
                    "name": "",
                    "type": "address"
                }
            ],
            "stateMutability": "view",
            "type": "function"
        },
        {
            "inputs": [
                {
                    "internalType": "uint256",
                    "name": "inscriptionId",
                    "type": "uint256"
                }
            ],
            "name": "getInscriptionURI",
            "outputs": [
                {
                    "internalType": "string",
                    "name": "inscriptionURI",
                    "type": "string"
                }
            ],
            "stateMutability": "view",
            "type": "function"
        },
        {
            "inputs": [
                {
                    "internalType": "address",
                    "name": "inscriber",
                    "type": "address"
                },
                {
                    "internalType": "address",
                    "name": "nftAddress",
                    "type": "address"
                },
                {
                    "internalType": "uint256",
                    "name": "tokenId",
                    "type": "uint256"
                }
            ],
            "name": "getNonce",
            "outputs": [
                {
                    "internalType": "uint256",
                    "name": "",
                    "type": "uint256"
                }
            ],
            "stateMutability": "view",
            "type": "function"
        },
        {
            "inputs": [
                {
                    "internalType": "address",
                    "name": "owner",
                    "type": "address"
                },
                {
                    "internalType": "address",
                    "name": "operator",
                    "type": "address"
                }
            ],
            "name": "isApprovedForAll",
            "outputs": [
                {
                    "internalType": "bool",
                    "name": "",
                    "type": "bool"
                }
            ],
            "stateMutability": "view",
            "type": "function"
        },
        {
            "inputs": [
                {
                    "internalType": "uint256",
                    "name": "baseUriId",
                    "type": "uint256"
                },
                {
                    "internalType": "string",
                    "name": "baseUri",
                    "type": "string"
                }
            ],
            "name": "migrateBaseURI",
            "outputs": [],
            "stateMutability": "nonpayable",
            "type": "function"
        },
        {
            "inputs": [
                {
                    "internalType": "uint256",
                    "name": "inscriptionId",
                    "type": "uint256"
                },
                {
                    "internalType": "string",
                    "name": "inscriptionURI",
                    "type": "string"
                },
                {
                    "internalType": "address",
                    "name": "nftAddress",
                    "type": "address"
                },
                {
                    "internalType": "uint256",
                    "name": "tokenId",
                    "type": "uint256"
                }
            ],
            "name": "migrateURI",
            "outputs": [],
            "stateMutability": "nonpayable",
            "type": "function"
        },
        {
            "inputs": [
                {
                    "internalType": "uint256",
                    "name": "inscriptionId",
                    "type": "uint256"
                },
                {
                    "internalType": "uint256",
                    "name": "baseUriId",
                    "type": "uint256"
                },
                {
                    "internalType": "address",
                    "name": "nftAddress",
                    "type": "address"
                },
                {
                    "internalType": "uint256",
                    "name": "tokenId",
                    "type": "uint256"
                }
            ],
            "name": "migrateURI",
            "outputs": [],
            "stateMutability": "nonpayable",
            "type": "function"
        },
        {
            "inputs": [
                {
                    "internalType": "uint256",
                    "name": "inscriptionId",
                    "type": "uint256"
                },
                {
                    "internalType": "address",
                    "name": "nftAddress",
                    "type": "address"
                },
                {
                    "internalType": "uint256",
                    "name": "tokenId",
                    "type": "uint256"
                }
            ],
            "name": "removeInscription",
            "outputs": [],
            "stateMutability": "nonpayable",
            "type": "function"
        },
        {
            "inputs": [
                {
                    "internalType": "address",
                    "name": "operator",
                    "type": "address"
                },
                {
                    "internalType": "bool",
                    "name": "approved",
                    "type": "bool"
                }
            ],
            "name": "setApprovalForAll",
            "outputs": [],
            "stateMutability": "nonpayable",
            "type": "function"
        },
        {
            "inputs": [
                {
                    "internalType": "uint256",
                    "name": "inscriptionId",
                    "type": "uint256"
                },
                {
                    "internalType": "address",
                    "name": "nftAddress",
                    "type": "address"
                },
                {
                    "internalType": "uint256",
                    "name": "tokenId",
                    "type": "uint256"
                }
            ],
            "name": "verifyInscription",
            "outputs": [
                {
                    "internalType": "bool",
                    "name": "",
                    "type": "bool"
                }
            ],
            "stateMutability": "view",
            "type": "function"
        }
    ],
    "bytecode": "60a060405234801561001057600080fd5b50600180805560098190556040805180820182526008815267496e73637269626560c01b60209182015281518083018352928352603160f81b928101929092525146916100c7917f8b73c3c69bb8fe3d512ecc4cf759cc79239f7b179b0ffacaa9a75d522b39400f917f181fd12fd4580400368d8953eca1bf472ee233e7e06245d1ef8c176ff12bd3c4917fc89efdaa54c0f20c7adf612882df0950f5a951637e0307cdcb4c672f298b8bc69186913091016100e8565b60408051601f19818403018152919052805160209091012060805250610114565b9485526020850193909352604084019190915260608301526001600160a01b0316608082015260a00190565b60805161256b6101366000396000818161122e0152611555015261256b6000f3fe608060405234801561001057600080fd5b50600436106101215760003560e01c80639053012c116100ad578063df5bc84111610071578063df5bc84114610262578063e1f21c6714610282578063e985e9c514610295578063f0ed9be3146102a8578063f698da25146102b057610121565b80639053012c146101f657806397bb48eb14610209578063a22cb4651461021c578063ab8cb6a51461022f578063ada3d37a1461024257610121565b80634910cac1116100f45780634910cac1146101975780635b44658a146101aa57806373376398146101bd57806383ef1e37146101d05780638443e0af146101e357610121565b8063098f23661461012657806327cfa7d21461014f57806338542c651461016457806345969d7114610177575b600080fd5b610139610134366004611b3a565b6102b8565b6040516101469190611ebe565b60405180910390f35b61016261015d366004611cdd565b6102e0565b005b610162610172366004611db3565b61039c565b61018a610185366004611d10565b61055b565b6040516101469190611f30565b6101396101a5366004611d10565b610754565b6101626101b8366004611ca3565b61078f565b61018a6101cb366004611d10565b61090f565b6101626101de366004611d28565b610a05565b6101626101f1366004611d4e565b610a88565b610162610204366004611df8565b610b29565b610162610217366004611c16565b610bc6565b61016261022a366004611b09565b610e58565b61016261023d366004611b65565b610ef0565b610255610250366004611ac9565b611096565b6040516101469190611edd565b610275610270366004611d28565b6110ec565b6040516101469190611ed2565b610162610290366004611ac9565b611131565b6102756102a3366004611a91565b6111da565b610255611208565b61025561122c565b6001600160a01b03918216600090815260076020908152604080832093835292905220541690565b806040516102ee9190611e58565b60405190819003812060015490917fd086063a9a7480742117a1605f9c23d3dcf2940d00249ffda4aac7fbfa08f01090600090a360408051808201825282815233602080830191909152600154600090815280825292909220815180519293919261035c9284920190611861565b5060209190910151600191820180546001600160a01b0319166001600160a01b039092169190911790558054906000610394836124af565b919050555050565b60008281526020819052604080822081518083019092528054829082906103c29061247a565b80601f01602080910402602001604051908101604052809291908181526020018280546103ee9061247a565b801561043b5780601f106104105761010080835404028352916020019161043b565b820191906000526020600020905b81548152906001019060200180831161041e57829003601f168201915b5050509183525050600191909101546001600160a01b0316602090910152905061046481611250565b6104895760405162461bcd60e51b815260040161048090612294565b60405180910390fd5b60208101516001600160a01b031633146104b55760405162461bcd60e51b81526004016104809061214c565b816040516104c39190611e58565b6040519081900381209084907f89737cf1a749249664a208d53ebc9ad1e6d3d2d84b40876efd70f8085bf9435390600090a360408051808201825283815233602080830191909152600086815280825292909220815180519293919261052c9284920190611861565b5060209190910151600190910180546001600160a01b0319166001600160a01b03909216919091179055505050565b606061056682611262565b6105825760405162461bcd60e51b815260040161048090611fd1565b6000828152600460205260409020548061063557600083815260056020526040902080546105af9061247a565b80601f01602080910402602001604051908101604052809291908181526020018280546105db9061247a565b80156106285780601f106105fd57610100808354040283529160200191610628565b820191906000526020600020905b81548152906001019060200180831161060b57829003601f168201915b505050505091505061074f565b600081815260208190526040808220815180830190925280548290829061065b9061247a565b80601f01602080910402602001604051908101604052809291908181526020018280546106879061247a565b80156106d45780601f106106a9576101008083540402835291602001916106d4565b820191906000526020600020905b8154815290600101906020018083116106b757829003601f168201915b5050509183525050600191909101546001600160a01b031660209091015290506106fd81611250565b6107195760405162461bcd60e51b815260040161048090612294565b80516107248561127f565b604051602001610735929190611e74565b6040516020818303038152906040529250505061074f565b505b919050565b6000818152600260205260408120546001600160a01b0316806107895760405162461bcd60e51b815260040161048090611fd1565b92915050565b6001600160a01b0384166107a257600080fd5b806107ac57600080fd5b6107b73385856113a2565b6107c057600080fd5b60008181526020819052604080822081518083019092528054829082906107e69061247a565b80601f01602080910402602001604051908101604052809291908181526020018280546108129061247a565b801561085f5780601f106108345761010080835404028352916020019161085f565b820191906000526020600020905b81548152906001019060200180831161084257829003601f168201915b5050509183525050600191909101546001600160a01b0316602090910152905061088881611250565b6108a45760405162461bcd60e51b815260040161048090612294565b6009546000908152600460209081526040808320859055516108ca918891889101611e36565b6040516020818303038152906040528051906020012090506108f2868633876009548661142a565b60098054906000610902836124af565b9190505550505050505050565b606060008060008481526020019081526020016000206040518060400160405290816000820180546109409061247a565b80601f016020809104026020016040519081016040528092919081815260200182805461096c9061247a565b80156109b95780601f1061098e576101008083540402835291602001916109b9565b820191906000526020600020905b81548152906001019060200180831161099c57829003601f168201915b5050509183525050600191909101546001600160a01b031660209091015290506109e281611250565b6109fe5760405162461bcd60e51b815260040161048090612294565b5192915050565b610a0e83611262565b610a2a5760405162461bcd60e51b8152600401610480906121f2565b610a358383836110ec565b610a515760405162461bcd60e51b8152600401610480906123af565b610a5c3383836113a2565b610a785760405162461bcd60e51b81526004016104809061235d565b610a838383836114ab565b505050565b610a9185611262565b610aad5760405162461bcd60e51b8152600401610480906121f2565b610ab88583836110ec565b610ad45760405162461bcd60e51b8152600401610480906123af565b610adf3383836113a2565b610afb5760405162461bcd60e51b81526004016104809061235d565b600085815260046020908152604080832083905560059091529020610b219085856118e5565b505050505050565b610b3284611262565b610b4e5760405162461bcd60e51b8152600401610480906121f2565b610b598483836110ec565b610b755760405162461bcd60e51b8152600401610480906123af565b610b803383836113a2565b610b9c5760405162461bcd60e51b81526004016104809061235d565b600084815260046020908152604080832086905560059091528120610bc091611959565b50505050565b6001600160a01b038616610bd957600080fd5b6001600160a01b038816610bec57600080fd5b60008888604051602001610c01929190611e36565b60408051601f1981840301815291815281516020928301206001600160a01b038a166000908152600684528281208282529093529120549091508414610c595760405162461bcd60e51b815260040161048090612237565b6000610c678a8a8988611551565b9050876001600160a01b0316610cb38286868080601f0160208091040260200160405190810160405280939291908181526020018383808284376000920191909152506115f792505050565b6001600160a01b031614610cd95760405162461bcd60e51b815260040161048090612049565b610ce4338b8b6113a2565b610d005760405162461bcd60e51b815260040161048090612008565b6009546000878152602081905260408082208151808301909252805482908290610d299061247a565b80601f0160208091040260200160405190810160405280929190818152602001828054610d559061247a565b8015610da25780601f10610d7757610100808354040283529160200191610da2565b820191906000526020600020905b815481529060010190602001808311610d8557829003601f168201915b5050509183525050600191909101546001600160a01b03166020909101529050610dcb81611250565b610de75760405162461bcd60e51b815260040161048090612294565b60008281526004602090815260408083208b90556001600160a01b038d168352600682528083208784529091528120805491610e22836124af565b9190505550610e358c8c8c8c868961142a565b60098054906000610e45836124af565b9190505550505050505050505050505050565b6001600160a01b038216331415610e815760405162461bcd60e51b815260040161048090612103565b3360008181526008602090815260408083206001600160a01b038716808552925291829020805460ff191685151517905590519091907f17307eab39ab6107e8899845ad3d59bd9653f200f220920489ca2b5937696c3190610ee4908590611ed2565b60405180910390a35050565b6001600160a01b038716610f0357600080fd5b6001600160a01b038916610f1657600080fd5b60008989604051602001610f2b929190611e36565b60408051601f1981840301815291815281516020928301206001600160a01b038b166000908152600684528281208282529093529120549091508414610f835760405162461bcd60e51b815260040161048090612237565b6000610f918b8b8a88611551565b9050886001600160a01b0316610fdd8286868080601f0160208091040260200160405190810160405280939291908181526020018383808284376000920191909152506115f792505050565b6001600160a01b0316146110035760405162461bcd60e51b815260040161048090612049565b61100e338c8c6113a2565b61102a5760405162461bcd60e51b815260040161048090612008565b6009546000818152600460209081526040808320839055600590915290206110539089896118e5565b506001600160a01b038a1660009081526006602090815260408083208684529091528120805491611083836124af565b9190505550610e358c8c8c8c858861142a565b60008083836040516020016110ac929190611e36565b60408051601f1981840301815291815281516020928301206001600160a01b03881660009081526006845282812091815292529020549150509392505050565b60008381526003602090815260408083205490519091611110918691869101611e36565b60408051601f19818403018152919052805160209091012014949350505050565b600061113d8383611620565b90506001600160a01b0381166111655760405162461bcd60e51b815260040161048090612093565b806001600160a01b0316846001600160a01b031614156111975760405162461bcd60e51b815260040161048090612195565b336001600160a01b03821614806111b357506111b381336111da565b6111cf5760405162461bcd60e51b81526004016104809061230d565b610bc08484846116a1565b6001600160a01b03918216600090815260086020908152604080832093909416825291909152205460ff1690565b7f6b7aae47ef1cd82bf33fbe47ef7d5d948c32a966662d56eb728bd4a5ed1082ea81565b7f000000000000000000000000000000000000000000000000000000000000000081565b602001516001600160a01b0316151590565b6000908152600260205260409020546001600160a01b0316151590565b6060816112a457506040805180820190915260018152600360fc1b602082015261074f565b8160005b81156112ce57806112b8816124af565b91506112c79050600a83612423565b91506112a8565b60008167ffffffffffffffff8111156112f757634e487b7160e01b600052604160045260246000fd5b6040519080825280601f01601f191660200182016040528015611321576020820181803683370190505b5090505b841561139a57611336600183612437565b9150611343600a866124ca565b61134e90603061240b565b60f81b81838151811061137157634e487b7160e01b600052603260045260246000fd5b60200101906001600160f81b031916908160001a905350611393600a86612423565b9450611325565b949350505050565b6000806113af8484611620565b90506001600160a01b0381166113d75760405162461bcd60e51b815260040161048090612093565b806001600160a01b0316856001600160a01b031614806114115750846001600160a01b031661140685856102b8565b6001600160a01b0316145b80611421575061142181866111da565b95945050505050565b600082815260026020908152604080832080546001600160a01b0319166001600160a01b0389811691821790925560039093529281902084905551909188169084907f26d3ffea55817c62dba8b29a48d1556ae5180bf0d48fe01bc28f7a34645032fa9061149b908a9089906123fd565b60405180910390a4505050505050565b6114b7600083836116a1565b600083815260026020908152604080832080546001600160a01b0319811690915560038352818420849055600590925282206001600160a01b03909116916114ff9190611959565b806001600160a01b0316836001600160a01b0316857f9f2d076e5b86e9e3938c6331fe03fa21d967dcd3f042fd2a87a6e6fc7a9f6118856040516115439190611edd565b60405180910390a450505050565b60007f00000000000000000000000000000000000000000000000000000000000000007f6b7aae47ef1cd82bf33fbe47ef7d5d948c32a966662d56eb728bd4a5ed1082ea60001b868686866040516020016115b0959493929190611ee6565b604051602081830303815290604052805190602001206040516020016115d7929190611ea3565b604051602081830303815290604052805190602001209050949350505050565b6000806116048484611729565b90506001600160a01b03811661161957600080fd5b9392505050565b6040516331a9108f60e11b815260009083906001600160a01b03821690636352211e90611651908690600401611edd565b60206040518083038186803b15801561166957600080fd5b505afa15801561167d573d6000803e3d6000fd5b505050506040513d601f19601f8201168201806040525081019061139a9190611a75565b6001600160a01b038281166000818152600760209081526040808320868452909152902080546001600160a01b0319169286169283179055906116e48484611620565b6001600160a01b03167fa0175360a15bca328baf7ea85c7b784d58b222a50d0ce760b10dba336d226a618460405161171c9190611edd565b60405180910390a4505050565b6000815160411461174c5760405162461bcd60e51b815260040161048090611f9a565b60208201516040830151606084015160001a61176a86828585611774565b9695505050505050565b60007f7fffffffffffffffffffffffffffffff5d576e7357a4501ddfe92f46681b20a08211156117b65760405162461bcd60e51b8152600401610480906120c1565b8360ff16601b14806117cb57508360ff16601c145b6117e75760405162461bcd60e51b8152600401610480906122cb565b60006001868686866040516000815260200160405260405161180c9493929190611f12565b6020604051602081039080840390855afa15801561182e573d6000803e3d6000fd5b5050604051601f1901519150506001600160a01b0381166114215760405162461bcd60e51b815260040161048090611f63565b82805461186d9061247a565b90600052602060002090601f01602090048101928261188f57600085556118d5565b82601f106118a857805160ff19168380011785556118d5565b828001600101855582156118d5579182015b828111156118d55782518255916020019190600101906118ba565b506118e1929150611998565b5090565b8280546118f19061247a565b90600052602060002090601f01602090048101928261191357600085556118d5565b82601f1061192c5782800160ff198235161785556118d5565b828001600101855582156118d5579182015b828111156118d557823582559160200191906001019061193e565b5080546119659061247a565b6000825580601f106119775750611995565b601f0160209004906000526020600020908101906119959190611998565b50565b5b808211156118e15760008155600101611999565b60008083601f8401126119be578182fd5b50813567ffffffffffffffff8111156119d5578182fd5b6020830191508360208285010111156119ed57600080fd5b9250929050565b600082601f830112611a04578081fd5b813567ffffffffffffffff80821115611a1f57611a1f61250a565b604051601f8301601f191681016020018281118282101715611a4357611a4361250a565b604052828152848301602001861015611a5a578384fd5b82602086016020830137918201602001929092529392505050565b600060208284031215611a86578081fd5b815161161981612520565b60008060408385031215611aa3578081fd5b8235611aae81612520565b91506020830135611abe81612520565b809150509250929050565b600080600060608486031215611add578081fd5b8335611ae881612520565b92506020840135611af881612520565b929592945050506040919091013590565b60008060408385031215611b1b578182fd5b8235611b2681612520565b915060208301358015158114611abe578182fd5b60008060408385031215611b4c578182fd5b8235611b5781612520565b946020939093013593505050565b600080600080600080600080600060e08a8c031215611b82578485fd5b8935611b8d81612520565b985060208a0135975060408a0135611ba481612520565b965060608a0135955060808a013567ffffffffffffffff80821115611bc7578687fd5b611bd38d838e016119ad565b909750955060a08c0135945060c08c0135915080821115611bf2578384fd5b50611bff8c828d016119ad565b915080935050809150509295985092959850929598565b60008060008060008060008060e0898b031215611c31578384fd5b8835611c3c81612520565b9750602089013596506040890135611c5381612520565b9550606089013594506080890135935060a0890135925060c089013567ffffffffffffffff811115611c83578283fd5b611c8f8b828c016119ad565b999c989b5096995094979396929594505050565b60008060008060808587031215611cb8578384fd5b8435611cc381612520565b966020860135965060408601359560600135945092505050565b600060208284031215611cee578081fd5b813567ffffffffffffffff811115611d04578182fd5b61139a848285016119f4565b600060208284031215611d21578081fd5b5035919050565b600080600060608486031215611d3c578081fd5b833592506020840135611af881612520565b600080600080600060808688031215611d65578283fd5b85359450602086013567ffffffffffffffff811115611d82578384fd5b611d8e888289016119ad565b9095509350506040860135611da281612520565b949793965091946060013592915050565b60008060408385031215611dc5578182fd5b82359150602083013567ffffffffffffffff811115611de2578182fd5b611dee858286016119f4565b9150509250929050565b60008060008060808587031215611e0d578182fd5b84359350602085013592506040850135611e2681612520565b9396929550929360600135925050565b60609290921b6bffffffffffffffffffffffff19168252601482015260340190565b60008251611e6a81846020870161244e565b9190910192915050565b60008351611e8681846020880161244e565b835190830190611e9a81836020880161244e565b01949350505050565b61190160f01b81526002810192909252602282015260420190565b6001600160a01b0391909116815260200190565b901515815260200190565b90815260200190565b9485526001600160a01b0393909316602085015260408401919091526060830152608082015260a00190565b93845260ff9290921660208401526040830152606082015260800190565b6000602082528251806020840152611f4f81604085016020870161244e565b601f01601f19169190910160400192915050565b60208082526018908201527f45434453413a20696e76616c6964207369676e61747572650000000000000000604082015260600190565b6020808252601f908201527f45434453413a20696e76616c6964207369676e6174757265206c656e67746800604082015260600190565b6020808252601a908201527f496e736372697074696f6e20646f6573206e6f74206578697374000000000000604082015260600190565b60208082526021908201527f4e465420646f6573206e6f742062656c6f6e6720746f206d73672073656e64656040820152603960f91b606082015260800190565b6020808252602a908201527f5265636f7665726564206164647265737320646f6573206e6f74206d617463686040820152691034b739b1b934b132b960b11b606082015260800190565b602080825260149082015273139bdb995e1a5cdd195b9d081d1bdad95b88125160621b604082015260600190565b60208082526022908201527f45434453413a20696e76616c6964207369676e6174757265202773272076616c604082015261756560f01b606082015260800190565b60208082526029908201527f4f70657261746f722063616e6e6f74206265207468652073616d65206173207460408201526834329031b0b63632b960b91b606082015260800190565b60208082526029908201527f4f6e6c79206f776e6572206f662074686520555249206d6179206d696772617460408201526865207468652055524960b81b606082015260800190565b6020808252603e908201527f43616e6e6f7420617070726f7665207468652027746f2720616464726573732060408201527f61732069742062656c6f6e677320746f20746865206e6674206f776e65720000606082015260800190565b60208082526025908201527f496e736372697074696f6e20646f6573206e6f742065786973742061742074686040820152641a5cc8125160da1b606082015260800190565b60208082526039908201527f4e6f6e6365206d69736d617463682c207369676e20616761696e20776974682060408201527f746865206e6f6e63652066726f6d20606765744e6f6e63656000000000000000606082015260800190565b60208082526017908201527f426173652055524920646f6573206e6f74206578697374000000000000000000604082015260600190565b60208082526022908201527f45434453413a20696e76616c6964207369676e6174757265202776272076616c604082015261756560f01b606082015260800190565b60208082526030908201527f417070726f76652063616c6c6572206973206e6f74206f776e6572206e6f722060408201526f185c1c1c9bdd995908199bdc88185b1b60821b606082015260800190565b60208082526032908201527f43616c6c657220646f6573206e6f74206f776e20696e736372697074696f6e206040820152711bdc881a5cc81b9bdd08185c1c1c9bdd995960721b606082015260800190565b6020808252602e908201527f5665726966696573206e66744164647265737320616e6420746f6b656e49642060408201526d617265206c65676974696d61746560901b606082015260800190565b918252602082015260400190565b6000821982111561241e5761241e6124de565b500190565b600082612432576124326124f4565b500490565b600082821015612449576124496124de565b500390565b60005b83811015612469578181015183820152602001612451565b83811115610bc05750506000910152565b60028104600182168061248e57607f821691505b6020821081141561074d57634e487b7160e01b600052602260045260246000fd5b60006000198214156124c3576124c36124de565b5060010190565b6000826124d9576124d96124f4565b500690565b634e487b7160e01b600052601160045260246000fd5b634e487b7160e01b600052601260045260246000fd5b634e487b7160e01b600052604160045260246000fd5b6001600160a01b038116811461199557600080fdfea264697066735822122077b3ef406ff56687842b924a6ce44b163f6001e3c1f857c7703c37c5e177ee6c64736f6c63430008000033",
    "sourcePath": "/Users/jingsongdu/Documents/core/contracts/Inscribe.sol",
    "compiler": {
        "name": "solc",
        "version": "0.8.0+commit.c7dfd78e"
    },
    "functionHashes": {
        "ADD_INSCRIPTION_TYPEHASH()": "f0ed9be3",
        "addBaseURI(string)": "27cfa7d2",
        "addInscriptionWithBaseUriId(address,uint256,address,bytes32,uint256,uint256,bytes)": "97bb48eb",
        "addInscriptionWithInscriptionUri(address,uint256,address,bytes32,string,uint256,bytes)": "ab8cb6a5",
        "addInscriptionWithNoSig(address,uint256,bytes32,uint256)": "5b44658a",
        "approve(address,address,uint256)": "e1f21c67",
        "domainSeparator()": "f698da25",
        "getApproved(address,uint256)": "098f2366",
        "getBaseURI(uint256)": "73376398",
        "getInscriber(uint256)": "4910cac1",
        "getInscriptionURI(uint256)": "45969d71",
        "getNonce(address,address,uint256)": "ada3d37a",
        "isApprovedForAll(address,address)": "e985e9c5",
        "migrateBaseURI(uint256,string)": "38542c65",
        "migrateURI(uint256,string,address,uint256)": "8443e0af",
        "migrateURI(uint256,uint256,address,uint256)": "9053012c",
        "removeInscription(uint256,address,uint256)": "83ef1e37",
        "setApprovalForAll(address,bool)": "a22cb465",
        "verifyInscription(uint256,address,uint256)": "df5bc841"
    },
    "gasEstimates": {
        "creation": {
            "codeDepositCost": "1915800",
            "executionCost": "infinite",
            "totalCost": "infinite"
        },
        "external": {
            "ADD_INSCRIPTION_TYPEHASH()": "316",
            "addBaseURI(string)": "infinite",
            "addInscriptionWithBaseUriId(address,uint256,address,bytes32,uint256,uint256,bytes)": "infinite",
            "addInscriptionWithInscriptionUri(address,uint256,address,bytes32,string,uint256,bytes)": "infinite",
            "addInscriptionWithNoSig(address,uint256,bytes32,uint256)": "infinite",
            "approve(address,address,uint256)": "infinite",
            "domainSeparator()": "infinite",
            "getApproved(address,uint256)": "1411",
            "getBaseURI(uint256)": "infinite",
            "getInscriber(uint256)": "1276",
            "getInscriptionURI(uint256)": "infinite",
            "getNonce(address,address,uint256)": "infinite",
            "isApprovedForAll(address,address)": "infinite",
            "migrateBaseURI(uint256,string)": "infinite",
            "migrateURI(uint256,string,address,uint256)": "infinite",
            "migrateURI(uint256,uint256,address,uint256)": "infinite",
            "removeInscription(uint256,address,uint256)": "infinite",
            "setApprovalForAll(address,bool)": "23322",
            "verifyInscription(uint256,address,uint256)": "1563"
        },
        "internal": {
            "_addInscription(address,uint256,address,bytes32,uint256,bytes32)": "infinite",
            "_approve(address,address,uint256)": "infinite",
            "_generateAddInscriptionHash(address,uint256,bytes32,uint256)": "infinite",
            "_inscriptionExists(uint256)": "911",
            "_isApprovedOrOwner(address,address,uint256)": "infinite",
            "_ownerOf(address,uint256)": "infinite",
            "_recoverSigner(bytes32,bytes memory)": "infinite",
            "_removeInscription(uint256,address,uint256)": "infinite"
        }
    }
}