{
    "contractName": "Inscribe",
    "abi": [
        {
            "inputs": [],
            "stateMutability": "nonpayable",
            "type": "constructor"
        },
        {
            "anonymous": false,
            "inputs": [
                {
                    "indexed": true,
                    "internalType": "address",
                    "name": "owner",
                    "type": "address"
                },
                {
                    "indexed": true,
                    "internalType": "address",
                    "name": "inscriber",
                    "type": "address"
                },
                {
                    "indexed": true,
                    "internalType": "address",
                    "name": "nftAddress",
                    "type": "address"
                },
                {
                    "indexed": false,
                    "internalType": "uint256",
                    "name": "tokenId",
                    "type": "uint256"
                }
            ],
            "name": "Approval",
            "type": "event"
        },
        {
            "anonymous": false,
            "inputs": [
                {
                    "indexed": true,
                    "internalType": "address",
                    "name": "owner",
                    "type": "address"
                },
                {
                    "indexed": true,
                    "internalType": "address",
                    "name": "operator",
                    "type": "address"
                },
                {
                    "indexed": false,
                    "internalType": "bool",
                    "name": "approved",
                    "type": "bool"
                }
            ],
            "name": "ApprovalForAll",
            "type": "event"
        },
        {
            "anonymous": false,
            "inputs": [
                {
                    "indexed": true,
                    "internalType": "uint256",
                    "name": "baseUriId",
                    "type": "uint256"
                },
                {
                    "indexed": true,
                    "internalType": "string",
                    "name": "baseUri",
                    "type": "string"
                }
            ],
            "name": "BaseURIAdded",
            "type": "event"
        },
        {
            "anonymous": false,
            "inputs": [
                {
                    "indexed": true,
                    "internalType": "uint256",
                    "name": "baseURIId",
                    "type": "uint256"
                },
                {
                    "indexed": true,
                    "internalType": "string",
                    "name": "baseURI",
                    "type": "string"
                }
            ],
            "name": "BaseURIModified",
            "type": "event"
        },
        {
            "anonymous": false,
            "inputs": [
                {
                    "indexed": true,
                    "internalType": "uint256",
                    "name": "inscriptionId",
                    "type": "uint256"
                },
                {
                    "indexed": true,
                    "internalType": "address",
                    "name": "nftAddress",
                    "type": "address"
                },
                {
                    "indexed": false,
                    "internalType": "uint256",
                    "name": "tokenId",
                    "type": "uint256"
                },
                {
                    "indexed": true,
                    "internalType": "address",
                    "name": "inscriber",
                    "type": "address"
                },
                {
                    "indexed": false,
                    "internalType": "bytes32",
                    "name": "contentHash",
                    "type": "bytes32"
                }
            ],
            "name": "InscriptionAdded",
            "type": "event"
        },
        {
            "anonymous": false,
            "inputs": [
                {
                    "indexed": true,
                    "internalType": "uint256",
                    "name": "inscriptionId",
                    "type": "uint256"
                },
                {
                    "indexed": true,
                    "internalType": "address",
                    "name": "nftAddress",
                    "type": "address"
                },
                {
                    "indexed": false,
                    "internalType": "uint256",
                    "name": "tokenId",
                    "type": "uint256"
                },
                {
                    "indexed": true,
                    "internalType": "address",
                    "name": "inscriber",
                    "type": "address"
                }
            ],
            "name": "InscriptionRemoved",
            "type": "event"
        },
        {
            "inputs": [],
            "name": "ADD_INSCRIPTION_TYPEHASH",
            "outputs": [
                {
                    "internalType": "bytes32",
                    "name": "",
                    "type": "bytes32"
                }
            ],
            "stateMutability": "view",
            "type": "function"
        },
        {
            "inputs": [
                {
                    "internalType": "string",
                    "name": "baseUri",
                    "type": "string"
                }
            ],
            "name": "addBaseURI",
            "outputs": [],
            "stateMutability": "nonpayable",
            "type": "function"
        },
        {
            "inputs": [
                {
                    "internalType": "address",
                    "name": "nftAddress",
                    "type": "address"
                },
                {
                    "internalType": "uint256",
                    "name": "tokenId",
                    "type": "uint256"
                },
                {
                    "internalType": "address",
                    "name": "inscriber",
                    "type": "address"
                },
                {
                    "internalType": "bytes32",
                    "name": "contentHash",
                    "type": "bytes32"
                },
                {
                    "internalType": "uint256",
                    "name": "baseUriId",
                    "type": "uint256"
                },
                {
                    "internalType": "uint256",
                    "name": "nonce",
                    "type": "uint256"
                },
                {
                    "internalType": "bytes",
                    "name": "sig",
                    "type": "bytes"
                }
            ],
            "name": "addInscriptionWithBaseUriId",
            "outputs": [],
            "stateMutability": "nonpayable",
            "type": "function"
        },
        {
            "inputs": [
                {
                    "internalType": "address",
                    "name": "nftAddress",
                    "type": "address"
                },
                {
                    "internalType": "uint256",
                    "name": "tokenId",
                    "type": "uint256"
                },
                {
                    "internalType": "address",
                    "name": "inscriber",
                    "type": "address"
                },
                {
                    "internalType": "bytes32",
                    "name": "contentHash",
                    "type": "bytes32"
                },
                {
                    "internalType": "string",
                    "name": "inscriptionURI",
                    "type": "string"
                },
                {
                    "internalType": "uint256",
                    "name": "nonce",
                    "type": "uint256"
                },
                {
                    "internalType": "bytes",
                    "name": "sig",
                    "type": "bytes"
                }
            ],
            "name": "addInscriptionWithInscriptioniUri",
            "outputs": [],
            "stateMutability": "nonpayable",
            "type": "function"
        },
        {
            "inputs": [
                {
                    "internalType": "address",
                    "name": "nftAddress",
                    "type": "address"
                },
                {
                    "internalType": "uint256",
                    "name": "tokenId",
                    "type": "uint256"
                },
                {
                    "internalType": "bytes32",
                    "name": "contentHash",
                    "type": "bytes32"
                },
                {
                    "internalType": "uint256",
                    "name": "baseUriId",
                    "type": "uint256"
                }
            ],
            "name": "addInscriptionWithNoSig",
            "outputs": [],
            "stateMutability": "nonpayable",
            "type": "function"
        },
        {
            "inputs": [
                {
                    "internalType": "address",
                    "name": "to",
                    "type": "address"
                },
                {
                    "internalType": "address",
                    "name": "nftAddress",
                    "type": "address"
                },
                {
                    "internalType": "uint256",
                    "name": "tokenId",
                    "type": "uint256"
                }
            ],
            "name": "approve",
            "outputs": [],
            "stateMutability": "nonpayable",
            "type": "function"
        },
        {
            "inputs": [],
            "name": "domainSeparator",
            "outputs": [
                {
                    "internalType": "bytes32",
                    "name": "",
                    "type": "bytes32"
                }
            ],
            "stateMutability": "view",
            "type": "function"
        },
        {
            "inputs": [
                {
                    "internalType": "address",
                    "name": "nftAddress",
                    "type": "address"
                },
                {
                    "internalType": "uint256",
                    "name": "tokenId",
                    "type": "uint256"
                }
            ],
            "name": "getApproved",
            "outputs": [
                {
                    "internalType": "address",
                    "name": "",
                    "type": "address"
                }
            ],
            "stateMutability": "view",
            "type": "function"
        },
        {
            "inputs": [
                {
                    "internalType": "uint256",
                    "name": "baseUriId",
                    "type": "uint256"
                }
            ],
            "name": "getBaseURI",
            "outputs": [
                {
                    "internalType": "string",
                    "name": "baseURI",
                    "type": "string"
                }
            ],
            "stateMutability": "view",
            "type": "function"
        },
        {
            "inputs": [
                {
                    "internalType": "uint256",
                    "name": "inscriptionId",
                    "type": "uint256"
                }
            ],
            "name": "getInscriber",
            "outputs": [
                {
                    "internalType": "address",
                    "name": "",
                    "type": "address"
                }
            ],
            "stateMutability": "view",
            "type": "function"
        },
        {
            "inputs": [
                {
                    "internalType": "uint256",
                    "name": "inscriptionId",
                    "type": "uint256"
                }
            ],
            "name": "getInscriptionURI",
            "outputs": [
                {
                    "internalType": "string",
                    "name": "inscriptionURI",
                    "type": "string"
                }
            ],
            "stateMutability": "view",
            "type": "function"
        },
        {
            "inputs": [
                {
                    "internalType": "address",
                    "name": "owner",
                    "type": "address"
                },
                {
                    "internalType": "address",
                    "name": "operator",
                    "type": "address"
                }
            ],
            "name": "isApprovedForAll",
            "outputs": [
                {
                    "internalType": "bool",
                    "name": "",
                    "type": "bool"
                }
            ],
            "stateMutability": "view",
            "type": "function"
        },
        {
            "inputs": [
                {
                    "internalType": "uint256",
                    "name": "baseUriId",
                    "type": "uint256"
                },
                {
                    "internalType": "string",
                    "name": "baseUri",
                    "type": "string"
                }
            ],
            "name": "migrateBaseURI",
            "outputs": [],
            "stateMutability": "nonpayable",
            "type": "function"
        },
        {
            "inputs": [
                {
                    "internalType": "uint256",
                    "name": "inscriptionId",
                    "type": "uint256"
                },
                {
                    "internalType": "string",
                    "name": "inscriptionURI",
                    "type": "string"
                },
                {
                    "internalType": "address",
                    "name": "nftAddress",
                    "type": "address"
                },
                {
                    "internalType": "uint256",
                    "name": "tokenId",
                    "type": "uint256"
                }
            ],
            "name": "migrateURI",
            "outputs": [],
            "stateMutability": "nonpayable",
            "type": "function"
        },
        {
            "inputs": [
                {
                    "internalType": "uint256",
                    "name": "inscriptionId",
                    "type": "uint256"
                },
                {
                    "internalType": "uint256",
                    "name": "baseUriId",
                    "type": "uint256"
                },
                {
                    "internalType": "address",
                    "name": "nftAddress",
                    "type": "address"
                },
                {
                    "internalType": "uint256",
                    "name": "tokenId",
                    "type": "uint256"
                }
            ],
            "name": "migrateURI",
            "outputs": [],
            "stateMutability": "nonpayable",
            "type": "function"
        },
        {
            "inputs": [
                {
                    "internalType": "uint256",
                    "name": "inscriptionId",
                    "type": "uint256"
                },
                {
                    "internalType": "address",
                    "name": "nftAddress",
                    "type": "address"
                },
                {
                    "internalType": "uint256",
                    "name": "tokenId",
                    "type": "uint256"
                }
            ],
            "name": "removeInscription",
            "outputs": [],
            "stateMutability": "nonpayable",
            "type": "function"
        },
        {
            "inputs": [
                {
                    "internalType": "address",
                    "name": "operator",
                    "type": "address"
                },
                {
                    "internalType": "bool",
                    "name": "approved",
                    "type": "bool"
                }
            ],
            "name": "setApprovalForAll",
            "outputs": [],
            "stateMutability": "nonpayable",
            "type": "function"
        },
        {
            "inputs": [
                {
                    "internalType": "uint256",
                    "name": "inscriptionId",
                    "type": "uint256"
                },
                {
                    "internalType": "address",
                    "name": "nftAddress",
                    "type": "address"
                },
                {
                    "internalType": "uint256",
                    "name": "tokenId",
                    "type": "uint256"
                }
            ],
            "name": "verifyInscription",
            "outputs": [
                {
                    "internalType": "bool",
                    "name": "",
                    "type": "bool"
                }
            ],
            "stateMutability": "view",
            "type": "function"
        }
    ],
    "bytecode": "60a060405234801561001057600080fd5b506001808055600881815560408051808201825291825267496e73637269626560c01b60209283015280518082018252928352603160f81b92820192909252905146916100c7917f8b73c3c69bb8fe3d512ecc4cf759cc79239f7b179b0ffacaa9a75d522b39400f917f181fd12fd4580400368d8953eca1bf472ee233e7e06245d1ef8c176ff12bd3c4917fc89efdaa54c0f20c7adf612882df0950f5a951637e0307cdcb4c672f298b8bc69186913091016100e8565b60408051601f19818403018152919052805160209091012060805250610114565b9485526020850193909352604084019190915260608301526001600160a01b0316608082015260a00190565b60805161226961013660003960008181610f0a015261126101526122696000f3fe608060405234801561001057600080fd5b50600436106101165760003560e01c80639053012c116100a2578063df5bc84111610071578063df5bc84114610237578063e1f21c6714610257578063e985e9c51461026a578063f0ed9be31461027d578063f698da251461029257610116565b80639053012c146101eb57806397bb48eb146101fe578063a22cb46514610211578063d575aa1c1461022457610116565b80634910cac1116100e95780634910cac11461018c5780635b44658a1461019f57806373376398146101b257806383ef1e37146101c55780638443e0af146101d857610116565b8063098f23661461011b57806327cfa7d21461014457806338542c651461015957806345969d711461016c575b600080fd5b61012e610129366004611846565b61029a565b60405161013b9190611c54565b60405180910390f35b6101576101523660046119e9565b6102c2565b005b610157610167366004611abf565b61037e565b61017f61017a366004611a1c565b61053d565b60405161013b9190611cc6565b61012e61019a366004611a1c565b610655565b6101576101ad3660046119af565b610690565b61017f6101c0366004611a1c565b6107ea565b6101576101d3366004611a34565b6108e0565b6101576101e6366004611a5a565b610963565b6101576101f9366004611b04565b610a04565b61015761020c366004611922565b610aa1565b61015761021f366004611815565b610c6b565b610157610232366004611871565b610d03565b61024a610245366004611a34565b610dc8565b60405161013b9190611c68565b6101576102653660046117d5565b610e0d565b61024a61027836600461179d565b610eb6565b610285610ee4565b60405161013b9190611c73565b610285610f08565b6001600160a01b03918216600090815260066020908152604080832093835292905220541690565b806040516102d09190611b80565b60405190819003812060015490917fd086063a9a7480742117a1605f9c23d3dcf2940d00249ffda4aac7fbfa08f01090600090a360408051808201825282815233602080830191909152600154600090815280825292909220815180519293919261033e928492019061156d565b5060209190910151600191820180546001600160a01b0319166001600160a01b039092169190911790558054906000610376836121ad565b919050555050565b60008281526020819052604080822081518083019092528054829082906103a490612178565b80601f01602080910402602001604051908101604052809291908181526020018280546103d090612178565b801561041d5780601f106103f25761010080835404028352916020019161041d565b820191906000526020600020905b81548152906001019060200180831161040057829003601f168201915b5050509183525050600191909101546001600160a01b0316602090910152905061044681610f2c565b61046b5760405162461bcd60e51b815260040161046290611f42565b60405180910390fd5b60208101516001600160a01b031633146104975760405162461bcd60e51b815260040161046290611e57565b816040516104a59190611b80565b6040519081900381209084907f89737cf1a749249664a208d53ebc9ad1e6d3d2d84b40876efd70f8085bf9435390600090a360408051808201825283815233602080830191909152600086815280825292909220815180519293919261050e928492019061156d565b5060209190910151600190910180546001600160a01b0319166001600160a01b03909216919091179055505050565b606061054882610f3e565b6105645760405162461bcd60e51b815260040161046290611d67565b60008281526004602052604090205480610617576000838152600560205260409020805461059190612178565b80601f01602080910402602001604051908101604052809291908181526020018280546105bd90612178565b801561060a5780601f106105df5761010080835404028352916020019161060a565b820191906000526020600020905b8154815290600101906020018083116105ed57829003601f168201915b5050505050915050610650565b600081815260208190526040902061062e84610f5b565b60405160200161063f929190611b9c565b60408051601f19818403019052525b505b919050565b6000818152600260205260408120546001600160a01b03168061068a5760405162461bcd60e51b815260040161046290611d67565b92915050565b6001600160a01b0384166106a357600080fd5b806106ad57600080fd5b6106b833858561107e565b6106c157600080fd5b60008181526020819052604080822081518083019092528054829082906106e790612178565b80601f016020809104026020016040519081016040528092919081815260200182805461071390612178565b80156107605780601f1061073557610100808354040283529160200191610760565b820191906000526020600020905b81548152906001019060200180831161074357829003601f168201915b5050509183525050600191909101546001600160a01b0316602090910152905061078981610f2c565b6107a55760405162461bcd60e51b815260040161046290611f42565b81600460006008548152602001908152602001600020819055506107ce85853386600854611106565b600880549060006107de836121ad565b91905055505050505050565b6060600080600084815260200190815260200160002060405180604001604052908160008201805461081b90612178565b80601f016020809104026020016040519081016040528092919081815260200182805461084790612178565b80156108945780601f1061086957610100808354040283529160200191610894565b820191906000526020600020905b81548152906001019060200180831161087757829003601f168201915b5050509183525050600191909101546001600160a01b031660209091015290506108bd81610f2c565b6108d95760405162461bcd60e51b815260040161046290611f42565b5192915050565b6108e983610f3e565b6109055760405162461bcd60e51b815260040161046290611efd565b610910838383610dc8565b61092c5760405162461bcd60e51b81526004016104629061205d565b61093733838361107e565b6109535760405162461bcd60e51b81526004016104629061200b565b61095e8383836111b7565b505050565b61096c85610f3e565b6109885760405162461bcd60e51b815260040161046290611efd565b610993858383610dc8565b6109af5760405162461bcd60e51b81526004016104629061205d565b6109ba33838361107e565b6109d65760405162461bcd60e51b81526004016104629061200b565b6000858152600460209081526040808320839055600590915290206109fc9085856115f1565b505050505050565b610a0d84610f3e565b610a295760405162461bcd60e51b815260040161046290611efd565b610a34848383610dc8565b610a505760405162461bcd60e51b81526004016104629061205d565b610a5b33838361107e565b610a775760405162461bcd60e51b81526004016104629061200b565b600084815260046020908152604080832086905560059091528120610a9b91611665565b50505050565b6001600160a01b038616610ab457600080fd5b6001600160a01b038816610ac757600080fd5b6000610ad58989888761125d565b9050610b21610b1a8285858080601f01602080910402602001604051908101604052809392919081815260200183838082843760009201919091525061130392505050565b8a8a61107e565b610b3d5760405162461bcd60e51b8152600401610462906120ab565b6000858152602081905260408082208151808301909252805482908290610b6390612178565b80601f0160208091040260200160405190810160405280929190818152602001828054610b8f90612178565b8015610bdc5780601f10610bb157610100808354040283529160200191610bdc565b820191906000526020600020905b815481529060010190602001808311610bbf57829003601f168201915b5050509183525050600191909101546001600160a01b03166020909101529050610c0581610f2c565b610c215760405162461bcd60e51b815260040161046290611f42565b8560046000600854815260200190815260200160002081905550610c4a8a8a8a8a600854611106565b60088054906000610c5a836121ad565b919050555050505050505050505050565b6001600160a01b038216331415610c945760405162461bcd60e51b815260040161046290611e0e565b3360008181526007602090815260408083206001600160a01b038716808552925291829020805460ff191685151517905590519091907f17307eab39ab6107e8899845ad3d59bd9653f200f220920489ca2b5937696c3190610cf7908590611c68565b60405180910390a35050565b6001600160a01b038716610d1657600080fd5b6001600160a01b038916610d2957600080fd5b6000610d378a8a898761125d565b9050610d83610d7c8285858080601f01602080910402602001604051908101604052809392919081815260200183838082843760009201919091525061130392505050565b8b8b61107e565b610d8c57600080fd5b600880546000908152600460209081526040808320839055925482526005905220610db89087876115f1565b50610c4a8a8a8a8a600854611106565b60008381526003602090815260408083205490519091610dec918691869101611b5e565b60408051601f19818403018152919052805160209091012014949350505050565b6000610e19838361132c565b90506001600160a01b038116610e415760405162461bcd60e51b815260040161046290611d9e565b806001600160a01b0316846001600160a01b03161415610e735760405162461bcd60e51b815260040161046290611ea0565b336001600160a01b0382161480610e8f5750610e8f8133610eb6565b610eab5760405162461bcd60e51b815260040161046290611fbb565b610a9b8484846113ad565b6001600160a01b03918216600090815260076020908152604080832093909416825291909152205460ff1690565b7f6b7aae47ef1cd82bf33fbe47ef7d5d948c32a966662d56eb728bd4a5ed1082ea81565b7f000000000000000000000000000000000000000000000000000000000000000081565b602001516001600160a01b0316151590565b6000908152600260205260409020546001600160a01b0316151590565b606081610f8057506040805180820190915260018152600360fc1b6020820152610650565b8160005b8115610faa5780610f94816121ad565b9150610fa39050600a83612121565b9150610f84565b60008167ffffffffffffffff811115610fd357634e487b7160e01b600052604160045260246000fd5b6040519080825280601f01601f191660200182016040528015610ffd576020820181803683370190505b5090505b841561107657611012600183612135565b915061101f600a866121c8565b61102a906030612109565b60f81b81838151811061104d57634e487b7160e01b600052603260045260246000fd5b60200101906001600160f81b031916908160001a90535061106f600a86612121565b9450611001565b949350505050565b60008061108b848461132c565b90506001600160a01b0381166110b35760405162461bcd60e51b815260040161046290611d9e565b806001600160a01b0316856001600160a01b031614806110ed5750846001600160a01b03166110e2858561029a565b6001600160a01b0316145b806110fd57506110fd8186610eb6565b95945050505050565b60008181526002602090815260409182902080546001600160a01b0319166001600160a01b0387161790559051611141918791879101611b5e565b60408051601f19818403018152828252805160209182012060008581526003909252919020556001600160a01b03808516919087169083907f26d3ffea55817c62dba8b29a48d1556ae5180bf0d48fe01bc28f7a34645032fa906111a890899088906120ef565b60405180910390a45050505050565b6111c3600083836113ad565b600083815260026020908152604080832080546001600160a01b0319811690915560038352818420849055600590925282206001600160a01b039091169161120b9190611665565b806001600160a01b0316836001600160a01b0316857f9f2d076e5b86e9e3938c6331fe03fa21d967dcd3f042fd2a87a6e6fc7a9f61188560405161124f9190611c73565b60405180910390a450505050565b60007f00000000000000000000000000000000000000000000000000000000000000007f6b7aae47ef1cd82bf33fbe47ef7d5d948c32a966662d56eb728bd4a5ed1082ea60001b868686866040516020016112bc959493929190611c7c565b604051602081830303815290604052805190602001206040516020016112e3929190611c39565b604051602081830303815290604052805190602001209050949350505050565b6000806113108484611435565b90506001600160a01b03811661132557600080fd5b9392505050565b6040516331a9108f60e11b815260009083906001600160a01b03821690636352211e9061135d908690600401611c73565b60206040518083038186803b15801561137557600080fd5b505afa158015611389573d6000803e3d6000fd5b505050506040513d601f19601f820116820180604052508101906110769190611781565b6001600160a01b038281166000818152600660209081526040808320868452909152902080546001600160a01b0319169286169283179055906113f0848461132c565b6001600160a01b03167fa0175360a15bca328baf7ea85c7b784d58b222a50d0ce760b10dba336d226a61846040516114289190611c73565b60405180910390a4505050565b600081516041146114585760405162461bcd60e51b815260040161046290611d30565b60208201516040830151606084015160001a61147686828585611480565b9695505050505050565b60007f7fffffffffffffffffffffffffffffff5d576e7357a4501ddfe92f46681b20a08211156114c25760405162461bcd60e51b815260040161046290611dcc565b8360ff16601b14806114d757508360ff16601c145b6114f35760405162461bcd60e51b815260040161046290611f79565b6000600186868686604051600081526020016040526040516115189493929190611ca8565b6020604051602081039080840390855afa15801561153a573d6000803e3d6000fd5b5050604051601f1901519150506001600160a01b0381166110fd5760405162461bcd60e51b815260040161046290611cf9565b82805461157990612178565b90600052602060002090601f01602090048101928261159b57600085556115e1565b82601f106115b457805160ff19168380011785556115e1565b828001600101855582156115e1579182015b828111156115e15782518255916020019190600101906115c6565b506115ed9291506116a4565b5090565b8280546115fd90612178565b90600052602060002090601f01602090048101928261161f57600085556115e1565b82601f106116385782800160ff198235161785556115e1565b828001600101855582156115e1579182015b828111156115e157823582559160200191906001019061164a565b50805461167190612178565b6000825580601f1061168357506116a1565b601f0160209004906000526020600020908101906116a191906116a4565b50565b5b808211156115ed57600081556001016116a5565b60008083601f8401126116ca578182fd5b50813567ffffffffffffffff8111156116e1578182fd5b6020830191508360208285010111156116f957600080fd5b9250929050565b600082601f830112611710578081fd5b813567ffffffffffffffff8082111561172b5761172b612208565b604051601f8301601f19168101602001828111828210171561174f5761174f612208565b604052828152848301602001861015611766578384fd5b82602086016020830137918201602001929092529392505050565b600060208284031215611792578081fd5b81516113258161221e565b600080604083850312156117af578081fd5b82356117ba8161221e565b915060208301356117ca8161221e565b809150509250929050565b6000806000606084860312156117e9578081fd5b83356117f48161221e565b925060208401356118048161221e565b929592945050506040919091013590565b60008060408385031215611827578182fd5b82356118328161221e565b9150602083013580151581146117ca578182fd5b60008060408385031215611858578182fd5b82356118638161221e565b946020939093013593505050565b600080600080600080600080600060e08a8c03121561188e578485fd5b89356118998161221e565b985060208a0135975060408a01356118b08161221e565b965060608a0135955060808a013567ffffffffffffffff808211156118d3578687fd5b6118df8d838e016116b9565b909750955060a08c0135945060c08c01359150808211156118fe578384fd5b5061190b8c828d016116b9565b915080935050809150509295985092959850929598565b60008060008060008060008060e0898b03121561193d578384fd5b88356119488161221e565b975060208901359650604089013561195f8161221e565b9550606089013594506080890135935060a0890135925060c089013567ffffffffffffffff81111561198f578283fd5b61199b8b828c016116b9565b999c989b5096995094979396929594505050565b600080600080608085870312156119c4578384fd5b84356119cf8161221e565b966020860135965060408601359560600135945092505050565b6000602082840312156119fa578081fd5b813567ffffffffffffffff811115611a10578182fd5b61107684828501611700565b600060208284031215611a2d578081fd5b5035919050565b600080600060608486031215611a48578081fd5b8335925060208401356118048161221e565b600080600080600060808688031215611a71578283fd5b85359450602086013567ffffffffffffffff811115611a8e578384fd5b611a9a888289016116b9565b9095509350506040860135611aae8161221e565b949793965091946060013592915050565b60008060408385031215611ad1578182fd5b82359150602083013567ffffffffffffffff811115611aee578182fd5b611afa85828601611700565b9150509250929050565b60008060008060808587031215611b19578182fd5b84359350602085013592506040850135611b328161221e565b9396929550929360600135925050565b60008151611b5481856020860161214c565b9290920192915050565b60609290921b6bffffffffffffffffffffffff19168252601482015260340190565b60008251611b9281846020870161214c565b9190910192915050565b8254600090819060028104600180831680611bb857607f831692505b6020808410821415611bd857634e487b7160e01b87526022600452602487fd5b818015611bec5760018114611bfd57611c29565b60ff19861689528489019650611c29565b611c068b6120fd565b885b86811015611c215781548b820152908501908301611c08565b505084890196505b5050505050506110fd8185611b42565b61190160f01b81526002810192909252602282015260420190565b6001600160a01b0391909116815260200190565b901515815260200190565b90815260200190565b9485526001600160a01b0393909316602085015260408401919091526060830152608082015260a00190565b93845260ff9290921660208401526040830152606082015260800190565b6000602082528251806020840152611ce581604085016020870161214c565b601f01601f19169190910160400192915050565b60208082526018908201527f45434453413a20696e76616c6964207369676e61747572650000000000000000604082015260600190565b6020808252601f908201527f45434453413a20696e76616c6964207369676e6174757265206c656e67746800604082015260600190565b6020808252601a908201527f496e736372697074696f6e20646f6573206e6f74206578697374000000000000604082015260600190565b602080825260149082015273139bdb995e1a5cdd195b9d081d1bdad95b88125160621b604082015260600190565b60208082526022908201527f45434453413a20696e76616c6964207369676e6174757265202773272076616c604082015261756560f01b606082015260800190565b60208082526029908201527f4f70657261746f722063616e6e6f74206265207468652073616d65206173207460408201526834329031b0b63632b960b91b606082015260800190565b60208082526029908201527f4f6e6c79206f776e6572206f662074686520555249206d6179206d696772617460408201526865207468652055524960b81b606082015260800190565b6020808252603e908201527f43616e6e6f7420617070726f7665207468652027746f2720616464726573732060408201527f61732069742062656c6f6e677320746f20746865206e6674206f776e65720000606082015260800190565b60208082526025908201527f496e736372697074696f6e20646f6573206e6f742065786973742061742074686040820152641a5cc8125160da1b606082015260800190565b60208082526017908201527f426173652055524920646f6573206e6f74206578697374000000000000000000604082015260600190565b60208082526022908201527f45434453413a20696e76616c6964207369676e6174757265202776272076616c604082015261756560f01b606082015260800190565b60208082526030908201527f417070726f76652063616c6c6572206973206e6f74206f776e6572206e6f722060408201526f185c1c1c9bdd995908199bdc88185b1b60821b606082015260800190565b60208082526032908201527f43616c6c657220646f6573206e6f74206f776e20696e736372697074696f6e206040820152711bdc881a5cc81b9bdd08185c1c1c9bdd995960721b606082015260800190565b6020808252602e908201527f5665726966696573206e66744164647265737320616e6420746f6b656e49642060408201526d617265206c65676974696d61746560901b606082015260800190565b60208082526024908201527f496e736372697074696f6e20646f6573206e6f742062656c6f6e6720746f206f6040820152633bb732b960e11b606082015260800190565b918252602082015260400190565b60009081526020902090565b6000821982111561211c5761211c6121dc565b500190565b600082612130576121306121f2565b500490565b600082821015612147576121476121dc565b500390565b60005b8381101561216757818101518382015260200161214f565b83811115610a9b5750506000910152565b60028104600182168061218c57607f821691505b6020821081141561064e57634e487b7160e01b600052602260045260246000fd5b60006000198214156121c1576121c16121dc565b5060010190565b6000826121d7576121d76121f2565b500690565b634e487b7160e01b600052601160045260246000fd5b634e487b7160e01b600052601260045260246000fd5b634e487b7160e01b600052604160045260246000fd5b6001600160a01b03811681146116a157600080fdfea26469706673582212209d06589b8da1c4e555ece9a8c5434f1d77d2b5fbf4209c6fb5cf767292b184ea64736f6c63430008000033",
    "sourcePath": "/Users/jingsongdu/Documents/core/contracts/Inscribe.sol",
    "compiler": {
        "name": "solc",
        "version": "0.8.0+commit.c7dfd78e"
    },
    "functionHashes": {
        "ADD_INSCRIPTION_TYPEHASH()": "f0ed9be3",
        "addBaseURI(string)": "27cfa7d2",
        "addInscriptionWithBaseUriId(address,uint256,address,bytes32,uint256,uint256,bytes)": "97bb48eb",
        "addInscriptionWithInscriptioniUri(address,uint256,address,bytes32,string,uint256,bytes)": "d575aa1c",
        "addInscriptionWithNoSig(address,uint256,bytes32,uint256)": "5b44658a",
        "approve(address,address,uint256)": "e1f21c67",
        "domainSeparator()": "f698da25",
        "getApproved(address,uint256)": "098f2366",
        "getBaseURI(uint256)": "73376398",
        "getInscriber(uint256)": "4910cac1",
        "getInscriptionURI(uint256)": "45969d71",
        "isApprovedForAll(address,address)": "e985e9c5",
        "migrateBaseURI(uint256,string)": "38542c65",
        "migrateURI(uint256,string,address,uint256)": "8443e0af",
        "migrateURI(uint256,uint256,address,uint256)": "9053012c",
        "removeInscription(uint256,address,uint256)": "83ef1e37",
        "setApprovalForAll(address,bool)": "a22cb465",
        "verifyInscription(uint256,address,uint256)": "df5bc841"
    },
    "gasEstimates": {
        "creation": {
            "codeDepositCost": "1761800",
            "executionCost": "infinite",
            "totalCost": "infinite"
        },
        "external": {
            "ADD_INSCRIPTION_TYPEHASH()": "316",
            "addBaseURI(string)": "infinite",
            "addInscriptionWithBaseUriId(address,uint256,address,bytes32,uint256,uint256,bytes)": "infinite",
            "addInscriptionWithInscriptioniUri(address,uint256,address,bytes32,string,uint256,bytes)": "infinite",
            "addInscriptionWithNoSig(address,uint256,bytes32,uint256)": "infinite",
            "approve(address,address,uint256)": "infinite",
            "domainSeparator()": "infinite",
            "getApproved(address,uint256)": "1411",
            "getBaseURI(uint256)": "infinite",
            "getInscriber(uint256)": "1276",
            "getInscriptionURI(uint256)": "infinite",
            "isApprovedForAll(address,address)": "infinite",
            "migrateBaseURI(uint256,string)": "infinite",
            "migrateURI(uint256,string,address,uint256)": "infinite",
            "migrateURI(uint256,uint256,address,uint256)": "infinite",
            "removeInscription(uint256,address,uint256)": "infinite",
            "setApprovalForAll(address,bool)": "23322",
            "verifyInscription(uint256,address,uint256)": "1563"
        },
        "internal": {
            "_addInscription(address,uint256,address,bytes32,uint256)": "infinite",
            "_approve(address,address,uint256)": "infinite",
            "_generateAddInscriptionHash(address,uint256,bytes32,uint256)": "infinite",
            "_inscriptionExists(uint256)": "911",
            "_isApprovedOrOwner(address,address,uint256)": "infinite",
            "_ownerOf(address,uint256)": "infinite",
            "_recoverSigner(bytes32,bytes memory)": "infinite",
            "_removeInscription(uint256,address,uint256)": "infinite"
        }
    }
}