{
  "contractName": "Inscribe",
  "abi": [
    {
      "inputs": [],
      "stateMutability": "nonpayable",
      "type": "constructor"
    },
    {
      "anonymous": false,
      "inputs": [
        {
          "indexed": true,
          "internalType": "address",
          "name": "owner",
          "type": "address"
        },
        {
          "indexed": true,
          "internalType": "address",
          "name": "inscriber",
          "type": "address"
        },
        {
          "indexed": true,
          "internalType": "address",
          "name": "nftAddress",
          "type": "address"
        },
        {
          "indexed": false,
          "internalType": "uint256",
          "name": "tokenId",
          "type": "uint256"
        }
      ],
      "name": "Approval",
      "type": "event"
    },
    {
      "anonymous": false,
      "inputs": [
        {
          "indexed": true,
          "internalType": "address",
          "name": "owner",
          "type": "address"
        },
        {
          "indexed": true,
          "internalType": "address",
          "name": "operator",
          "type": "address"
        },
        {
          "indexed": false,
          "internalType": "bool",
          "name": "approved",
          "type": "bool"
        }
      ],
      "name": "ApprovalForAll",
      "type": "event"
    },
    {
      "anonymous": false,
      "inputs": [
        {
          "indexed": true,
          "internalType": "uint256",
          "name": "inscriptionId",
          "type": "uint256"
        },
        {
          "indexed": true,
          "internalType": "address",
          "name": "nftAddress",
          "type": "address"
        },
        {
          "indexed": false,
          "internalType": "uint256",
          "name": "tokenId",
          "type": "uint256"
        },
        {
          "indexed": true,
          "internalType": "address",
          "name": "inscriber",
          "type": "address"
        },
        {
          "indexed": false,
          "internalType": "bytes32",
          "name": "contentHash",
          "type": "bytes32"
        },
        {
          "indexed": false,
          "internalType": "string",
          "name": "inscriptionURI",
          "type": "string"
        }
      ],
      "name": "InscriptionAdded",
      "type": "event"
    },
    {
      "anonymous": false,
      "inputs": [
        {
          "indexed": true,
          "internalType": "uint256",
          "name": "inscriptionId",
          "type": "uint256"
        },
        {
          "indexed": true,
          "internalType": "address",
          "name": "nftAddress",
          "type": "address"
        },
        {
          "indexed": false,
          "internalType": "uint256",
          "name": "tokenId",
          "type": "uint256"
        },
        {
          "indexed": true,
          "internalType": "address",
          "name": "inscriber",
          "type": "address"
        },
        {
          "indexed": false,
          "internalType": "bytes32",
          "name": "contentHash",
          "type": "bytes32"
        },
        {
          "indexed": false,
          "internalType": "string",
          "name": "inscriptionURI",
          "type": "string"
        }
      ],
      "name": "InscriptionRemoved",
      "type": "event"
    },
    {
      "inputs": [],
      "name": "ADD_INSCRIPTION_TYPEHASH",
      "outputs": [
        {
          "internalType": "bytes32",
          "name": "",
          "type": "bytes32"
        }
      ],
      "stateMutability": "view",
      "type": "function",
      "constant": true
    },
    {
      "inputs": [
        {
          "internalType": "address",
          "name": "inscriber",
          "type": "address"
        }
      ],
      "name": "getSigNonce",
      "outputs": [
        {
          "internalType": "uint256",
          "name": "",
          "type": "uint256"
        }
      ],
      "stateMutability": "view",
      "type": "function",
      "constant": true
    },
    {
      "inputs": [
        {
          "internalType": "uint256",
          "name": "inscriptionId",
          "type": "uint256"
        }
      ],
      "name": "getNFTLocation",
      "outputs": [
        {
          "internalType": "address",
          "name": "nftAddress",
          "type": "address"
        },
        {
          "internalType": "uint256",
          "name": "tokenId",
          "type": "uint256"
        }
      ],
      "stateMutability": "view",
      "type": "function",
      "constant": true
    },
    {
      "inputs": [
        {
          "internalType": "uint256",
          "name": "inscriptionId",
          "type": "uint256"
        }
      ],
      "name": "getInscriptionData",
      "outputs": [
        {
          "internalType": "address",
          "name": "inscriber",
          "type": "address"
        },
        {
          "internalType": "bytes32",
          "name": "contentHash",
          "type": "bytes32"
        },
        {
          "internalType": "string",
          "name": "inscriptionURI",
          "type": "string"
        }
      ],
      "stateMutability": "view",
      "type": "function",
      "constant": true
    },
    {
      "inputs": [
        {
          "internalType": "uint256",
          "name": "inscriptionId",
          "type": "uint256"
        }
      ],
      "name": "getInscriptionURI",
      "outputs": [
        {
          "internalType": "string",
          "name": "inscriptionURI",
          "type": "string"
        }
      ],
      "stateMutability": "view",
      "type": "function",
      "constant": true
    },
    {
      "inputs": [
        {
          "internalType": "address",
          "name": "to",
          "type": "address"
        },
        {
          "internalType": "address",
          "name": "nftAddress",
          "type": "address"
        },
        {
          "internalType": "uint256",
          "name": "tokenId",
          "type": "uint256"
        }
      ],
      "name": "approve",
      "outputs": [],
      "stateMutability": "nonpayable",
      "type": "function"
    },
    {
      "inputs": [
        {
          "internalType": "address",
          "name": "nftAddress",
          "type": "address"
        },
        {
          "internalType": "uint256",
          "name": "tokenId",
          "type": "uint256"
        }
      ],
      "name": "getApproved",
      "outputs": [
        {
          "internalType": "address",
          "name": "",
          "type": "address"
        }
      ],
      "stateMutability": "view",
      "type": "function",
      "constant": true
    },
    {
      "inputs": [
        {
          "internalType": "address",
          "name": "operator",
          "type": "address"
        },
        {
          "internalType": "bool",
          "name": "approved",
          "type": "bool"
        }
      ],
      "name": "setApprovalForAll",
      "outputs": [],
      "stateMutability": "nonpayable",
      "type": "function"
    },
    {
      "inputs": [
        {
          "internalType": "address",
          "name": "owner",
          "type": "address"
        },
        {
          "internalType": "address",
          "name": "operator",
          "type": "address"
        }
      ],
      "name": "isApprovedForAll",
      "outputs": [
        {
          "internalType": "bool",
          "name": "",
          "type": "bool"
        }
      ],
      "stateMutability": "view",
      "type": "function",
      "constant": true
    },
    {
      "inputs": [
        {
          "components": [
            {
              "internalType": "address",
              "name": "nftAddress",
              "type": "address"
            },
            {
              "internalType": "uint256",
              "name": "tokenId",
              "type": "uint256"
            }
          ],
          "internalType": "struct InscribeInterface.NFTLocation",
          "name": "location",
          "type": "tuple"
        },
        {
          "components": [
            {
              "internalType": "address",
              "name": "inscriber",
              "type": "address"
            },
            {
              "internalType": "bytes32",
              "name": "contentHash",
              "type": "bytes32"
            },
            {
              "internalType": "string",
              "name": "inscriptionURI",
              "type": "string"
            }
          ],
          "internalType": "struct InscribeInterface.InscriptionData",
          "name": "data",
          "type": "tuple"
        },
        {
          "internalType": "bytes",
          "name": "sig",
          "type": "bytes"
        }
      ],
      "name": "addInscription",
      "outputs": [],
      "stateMutability": "nonpayable",
      "type": "function"
    },
    {
      "inputs": [
        {
          "internalType": "uint256",
          "name": "inscriptionId",
          "type": "uint256"
        }
      ],
      "name": "removeInscription",
      "outputs": [],
      "stateMutability": "nonpayable",
      "type": "function"
    }
  ],
  "bytecode": "0x608060405234801561001057600080fd5b50600160048190555061285a806100286000396000f3fe608060405234801561001057600080fd5b50600436106100a95760003560e01c8063a22cb46511610071578063a22cb4651461018b578063d4ac39b7146101a7578063e1f21c67146101c3578063e985e9c5146101df578063f0ed9be31461020f578063fa19bd851461022d576100a9565b806305ac0ab4146100ae578063098f2366146100de57806345969d711461010e5780637109af8c1461013e57806371bd9b631461015a575b600080fd5b6100c860048036038101906100c39190611d16565b61025f565b6040516100d591906125c2565b60405180910390f35b6100f860048036038101906100f39190611e2f565b6102a8565b6040516101059190612314565b60405180910390f35b61012860048036038101906101239190611eea565b610323565b6040516101359190612480565b60405180910390f35b61015860048036038101906101539190611e6b565b61052f565b005b610174600480360381019061016f9190611eea565b61067b565b60405161018292919061236d565b60405180910390f35b6101a560048036038101906101a09190611df3565b610764565b005b6101c160048036038101906101bc9190611eea565b6108d0565b005b6101dd60048036038101906101d89190611da4565b610b31565b005b6101f960048036038101906101f49190611d68565b610cae565b6040516102069190612396565b60405180910390f35b610217610d42565b60405161022491906123b1565b60405180910390f35b61024760048036038101906102429190611eea565b610d69565b6040516102569392919061232f565b60405180910390f35b6000600360008373ffffffffffffffffffffffffffffffffffffffff1673ffffffffffffffffffffffffffffffffffffffff168152602001908152602001600020549050919050565b6000600160008473ffffffffffffffffffffffffffffffffffffffff1673ffffffffffffffffffffffffffffffffffffffff168152602001908152602001600020600083815260200190815260200160002060009054906101000a900473ffffffffffffffffffffffffffffffffffffffff16905092915050565b606061032e82610eff565b61036d576040517f08c379a0000000000000000000000000000000000000000000000000000000008152600401610364906124c2565b60405180910390fd5b6103756119be565b600080848152602001908152602001600020604051806040016040529081600082016040518060400160405290816000820160009054906101000a900473ffffffffffffffffffffffffffffffffffffffff1673ffffffffffffffffffffffffffffffffffffffff1673ffffffffffffffffffffffffffffffffffffffff1681526020016001820154815250508152602001600282016040518060600160405290816000820160009054906101000a900473ffffffffffffffffffffffffffffffffffffffff1673ffffffffffffffffffffffffffffffffffffffff1673ffffffffffffffffffffffffffffffffffffffff16815260200160018201548152602001600282018054600181600116156101000203166002900480601f01602080910402602001604051908101604052809291908181526020018280546001816001161561010002031660029004801561050f5780601f106104e45761010080835404028352916020019161050f565b820191906000526020600020905b8154815290600101906020018083116104f257829003601f168201915b505050505081525050815250509050806020015160400151915050919050565b600073ffffffffffffffffffffffffffffffffffffffff16826000015173ffffffffffffffffffffffffffffffffffffffff16141561056d57600080fd5b600073ffffffffffffffffffffffffffffffffffffffff16836000015173ffffffffffffffffffffffffffffffffffffffff1614156105ab57600080fd5b6105b36119be565b604051806040016040528085815260200184815250905060006105d582610f70565b905081602001516000015173ffffffffffffffffffffffffffffffffffffffff16610600828561106f565b73ffffffffffffffffffffffffffffffffffffffff1614610656576040517f08c379a000000000000000000000000000000000000000000000000000000000815260040161064d906124a2565b60405180910390fd5b610662826004546110c2565b6004600081548092919060010191905055505050505050565b60008061068783610eff565b6106c6576040517f08c379a00000000000000000000000000000000000000000000000000000000081526004016106bd90612522565b60405180910390fd5b6106ce6119e4565b6000808581526020019081526020016000206000016040518060400160405290816000820160009054906101000a900473ffffffffffffffffffffffffffffffffffffffff1673ffffffffffffffffffffffffffffffffffffffff1673ffffffffffffffffffffffffffffffffffffffff1681526020016001820154815250509050806000015181602001519250925050915091565b3373ffffffffffffffffffffffffffffffffffffffff168273ffffffffffffffffffffffffffffffffffffffff1614156107d3576040517f08c379a00000000000000000000000000000000000000000000000000000000081526004016107ca90612502565b60405180910390fd5b80600260003373ffffffffffffffffffffffffffffffffffffffff1673ffffffffffffffffffffffffffffffffffffffff16815260200190815260200160002060008473ffffffffffffffffffffffffffffffffffffffff1673ffffffffffffffffffffffffffffffffffffffff16815260200190815260200160002060006101000a81548160ff0219169083151502179055508173ffffffffffffffffffffffffffffffffffffffff163373ffffffffffffffffffffffffffffffffffffffff167f17307eab39ab6107e8899845ad3d59bd9653f200f220920489ca2b5937696c31836040516108c49190612396565b60405180910390a35050565b6108d86119be565b600080838152602001908152602001600020604051806040016040529081600082016040518060400160405290816000820160009054906101000a900473ffffffffffffffffffffffffffffffffffffffff1673ffffffffffffffffffffffffffffffffffffffff1673ffffffffffffffffffffffffffffffffffffffff1681526020016001820154815250508152602001600282016040518060600160405290816000820160009054906101000a900473ffffffffffffffffffffffffffffffffffffffff1673ffffffffffffffffffffffffffffffffffffffff1673ffffffffffffffffffffffffffffffffffffffff16815260200160018201548152602001600282018054600181600116156101000203166002900480601f016020809104026020016040519081016040528092919081815260200182805460018160011615610100020316600290048015610a725780601f10610a4757610100808354040283529160200191610a72565b820191906000526020600020905b815481529060010190602001808311610a5557829003601f168201915b505050505081525050815250509050610a8a82610eff565b610ac9576040517f08c379a0000000000000000000000000000000000000000000000000000000008152600401610ac090612562565b60405180910390fd5b610ae433826000015160000151836000015160200151611243565b610b23576040517f08c379a0000000000000000000000000000000000000000000000000000000008152600401610b1a906125a2565b60405180910390fd5b610b2d818361134b565b5050565b6000610b3d838361148e565b9050600073ffffffffffffffffffffffffffffffffffffffff168173ffffffffffffffffffffffffffffffffffffffff161415610baf576040517f08c379a0000000000000000000000000000000000000000000000000000000008152600401610ba6906124e2565b60405180910390fd5b8073ffffffffffffffffffffffffffffffffffffffff168473ffffffffffffffffffffffffffffffffffffffff161415610c1e576040517f08c379a0000000000000000000000000000000000000000000000000000000008152600401610c1590612542565b60405180910390fd5b8073ffffffffffffffffffffffffffffffffffffffff163373ffffffffffffffffffffffffffffffffffffffff161480610c5e5750610c5d8133610cae565b5b610c9d576040517f08c379a0000000000000000000000000000000000000000000000000000000008152600401610c9490612582565b60405180910390fd5b610ca8848484611526565b50505050565b6000600260008473ffffffffffffffffffffffffffffffffffffffff1673ffffffffffffffffffffffffffffffffffffffff16815260200190815260200160002060008373ffffffffffffffffffffffffffffffffffffffff1673ffffffffffffffffffffffffffffffffffffffff16815260200190815260200160002060009054906101000a900460ff16905092915050565b7f151052e7e52b0f0ec660ece1cc8d4e6463502663c19230798feeae51d10c855660001b81565b6000806060610d7784610eff565b610db6576040517f08c379a0000000000000000000000000000000000000000000000000000000008152600401610dad90612522565b60405180910390fd5b610dbe611a14565b6000808681526020019081526020016000206002016040518060600160405290816000820160009054906101000a900473ffffffffffffffffffffffffffffffffffffffff1673ffffffffffffffffffffffffffffffffffffffff1673ffffffffffffffffffffffffffffffffffffffff16815260200160018201548152602001600282018054600181600116156101000203166002900480601f016020809104026020016040519081016040528092919081815260200182805460018160011615610100020316600290048015610ed75780601f10610eac57610100808354040283529160200191610ed7565b820191906000526020600020905b815481529060010190602001808311610eba57829003601f168201915b5050505050815250509050806000015181602001518260400151935093509350509193909250565b60008073ffffffffffffffffffffffffffffffffffffffff1660008084815260200190815260200160002060020160000160009054906101000a900473ffffffffffffffffffffffffffffffffffffffff1673ffffffffffffffffffffffffffffffffffffffff1614159050919050565b600080610f7b61163f565b9050807f151052e7e52b0f0ec660ece1cc8d4e6463502663c19230798feeae51d10c855660001b84600001516000015185600001516020015186602001516020015187602001516040015180519060200120600360008a602001516000015173ffffffffffffffffffffffffffffffffffffffff1673ffffffffffffffffffffffffffffffffffffffff1681526020019081526020016000205460405160200161102a969594939291906123cc565b604051602081830303815290604052805190602001206040516020016110519291906122dd565b60405160208183030381529060405280519060200120915050919050565b60008061107c8484611712565b9050600073ffffffffffffffffffffffffffffffffffffffff168173ffffffffffffffffffffffffffffffffffffffff1614156110b857600080fd5b8091505092915050565b8160008083815260200190815260200160002060008201518160000160008201518160000160006101000a81548173ffffffffffffffffffffffffffffffffffffffff021916908373ffffffffffffffffffffffffffffffffffffffff16021790555060208201518160010155505060208201518160020160008201518160000160006101000a81548173ffffffffffffffffffffffffffffffffffffffff021916908373ffffffffffffffffffffffffffffffffffffffff1602179055506020820151816001015560408201518160020190805190602001906111a7929190611a4e565b50505090505081602001516000015173ffffffffffffffffffffffffffffffffffffffff1682600001516000015173ffffffffffffffffffffffffffffffffffffffff16827fe565eb15e83e62666d920a91204d657fc12159bf79bbf9c933118d861102abd1856000015160200151866020015160200151876020015160400151604051611237939291906125dd565b60405180910390a45050565b600080611250848461148e565b9050600073ffffffffffffffffffffffffffffffffffffffff168173ffffffffffffffffffffffffffffffffffffffff1614156112c2576040517f08c379a00000000000000000000000000000000000000000000000000000000081526004016112b9906124e2565b60405180910390fd5b8073ffffffffffffffffffffffffffffffffffffffff168573ffffffffffffffffffffffffffffffffffffffff16148061133057508473ffffffffffffffffffffffffffffffffffffffff1661131885856102a8565b73ffffffffffffffffffffffffffffffffffffffff16145b8061134157506113408186610cae565b5b9150509392505050565b6113676000836000015160000151846000015160200151611526565b6000808281526020019081526020016000206000808201600080820160006101000a81549073ffffffffffffffffffffffffffffffffffffffff02191690556001820160009055505060028201600080820160006101000a81549073ffffffffffffffffffffffffffffffffffffffff021916905560018201600090556002820160006113f49190611adc565b5050505081602001516000015173ffffffffffffffffffffffffffffffffffffffff1682600001516000015173ffffffffffffffffffffffffffffffffffffffff16827f70d9312bc984c030ce0aa69a3774cd88894d4e1cae7a684e1e4c1a254a1ba40d856000015160200151866020015160200151876020015160400151604051611482939291906125dd565b60405180910390a45050565b6000808390508073ffffffffffffffffffffffffffffffffffffffff16636352211e846040518263ffffffff1660e01b81526004016114cd91906125c2565b60206040518083038186803b1580156114e557600080fd5b505afa1580156114f9573d6000803e3d6000fd5b505050506040513d601f19601f8201168201806040525081019061151d9190611d3f565b91505092915050565b82600160008473ffffffffffffffffffffffffffffffffffffffff1673ffffffffffffffffffffffffffffffffffffffff168152602001908152602001600020600083815260200190815260200160002060006101000a81548173ffffffffffffffffffffffffffffffffffffffff021916908373ffffffffffffffffffffffffffffffffffffffff1602179055508173ffffffffffffffffffffffffffffffffffffffff168373ffffffffffffffffffffffffffffffffffffffff166115ed848461148e565b73ffffffffffffffffffffffffffffffffffffffff167fa0175360a15bca328baf7ea85c7b784d58b222a50d0ce760b10dba336d226a618460405161163291906125c2565b60405180910390a4505050565b6000804690507f8b73c3c69bb8fe3d512ecc4cf759cc79239f7b179b0ffacaa9a75d522b39400f6040518060400160405280600881526020017f496e736372696265000000000000000000000000000000000000000000000000815250805190602001206040518060400160405280600181526020017f31000000000000000000000000000000000000000000000000000000000000008152508051906020012083306040516020016116f695949392919061242d565b6040516020818303038152906040528051906020012091505090565b6000604182511461178b576040517f08c379a000000000000000000000000000000000000000000000000000000000815260040180806020018281038252601f8152602001807f45434453413a20696e76616c6964207369676e6174757265206c656e6774680081525060200191505060405180910390fd5b60008060006020850151925060408501519150606085015160001a90506117b4868285856117bf565b935050505092915050565b60007f7fffffffffffffffffffffffffffffff5d576e7357a4501ddfe92f46681b20a08260001c111561183d576040517f08c379a00000000000000000000000000000000000000000000000000000000081526004018080602001828103825260228152602001806127e16022913960400191505060405180910390fd5b601b8460ff1614806118525750601c8460ff16145b6118a7576040517f08c379a00000000000000000000000000000000000000000000000000000000081526004018080602001828103825260228152602001806128036022913960400191505060405180910390fd5b600060018686868660405160008152602001604052604051808581526020018460ff1681526020018381526020018281526020019450505050506020604051602081039080840390855afa158015611903573d6000803e3d6000fd5b505050602060405103519050600073ffffffffffffffffffffffffffffffffffffffff168173ffffffffffffffffffffffffffffffffffffffff1614156119b2576040517f08c379a00000000000000000000000000000000000000000000000000000000081526004018080602001828103825260188152602001807f45434453413a20696e76616c6964207369676e6174757265000000000000000081525060200191505060405180910390fd5b80915050949350505050565b60405180604001604052806119d16119e4565b81526020016119de611a14565b81525090565b6040518060400160405280600073ffffffffffffffffffffffffffffffffffffffff168152602001600081525090565b6040518060600160405280600073ffffffffffffffffffffffffffffffffffffffff16815260200160008019168152602001606081525090565b828054600181600116156101000203166002900490600052602060002090601f016020900481019282611a845760008555611acb565b82601f10611a9d57805160ff1916838001178555611acb565b82800160010185558215611acb579182015b82811115611aca578251825591602001919060010190611aaf565b5b509050611ad89190611b24565b5090565b50805460018160011615610100020316600290046000825580601f10611b025750611b21565b601f016020900490600052602060002090810190611b209190611b24565b5b50565b5b80821115611b3d576000816000905550600101611b25565b5090565b600081359050611b5081612784565b92915050565b600081519050611b6581612784565b92915050565b600081359050611b7a8161279b565b92915050565b600081359050611b8f816127b2565b92915050565b600082601f830112611ba657600080fd5b8135611bb9611bb48261264c565b61261b565b91508082526020830160208301858383011115611bd557600080fd5b611be0838284612725565b50505092915050565b600082601f830112611bfa57600080fd5b8135611c0d611c088261267c565b61261b565b91508082526020830160208301858383011115611c2957600080fd5b611c34838284612725565b50505092915050565b600060608284031215611c4f57600080fd5b611c59606061261b565b90506000611c6984828501611b41565b6000830152506020611c7d84828501611b80565b602083015250604082013567ffffffffffffffff811115611c9d57600080fd5b611ca984828501611be9565b60408301525092915050565b600060408284031215611cc757600080fd5b611cd1604061261b565b90506000611ce184828501611b41565b6000830152506020611cf584828501611d01565b60208301525092915050565b600081359050611d10816127c9565b92915050565b600060208284031215611d2857600080fd5b6000611d3684828501611b41565b91505092915050565b600060208284031215611d5157600080fd5b6000611d5f84828501611b56565b91505092915050565b60008060408385031215611d7b57600080fd5b6000611d8985828601611b41565b9250506020611d9a85828601611b41565b9150509250929050565b600080600060608486031215611db957600080fd5b6000611dc786828701611b41565b9350506020611dd886828701611b41565b9250506040611de986828701611d01565b9150509250925092565b60008060408385031215611e0657600080fd5b6000611e1485828601611b41565b9250506020611e2585828601611b6b565b9150509250929050565b60008060408385031215611e4257600080fd5b6000611e5085828601611b41565b9250506020611e6185828601611d01565b9150509250929050565b600080600060808486031215611e8057600080fd5b6000611e8e86828701611cb5565b935050604084013567ffffffffffffffff811115611eab57600080fd5b611eb786828701611c3d565b925050606084013567ffffffffffffffff811115611ed457600080fd5b611ee086828701611b95565b9150509250925092565b600060208284031215611efc57600080fd5b6000611f0a84828501611d01565b91505092915050565b611f1c816126d3565b82525050565b611f2b816126e5565b82525050565b611f3a816126f1565b82525050565b611f51611f4c826126f1565b612767565b82525050565b6000611f62826126ac565b611f6c81856126b7565b9350611f7c818560208601612734565b611f8581612773565b840191505092915050565b6000611f9d6020836126b7565b91507f4164647265737320646f6573206e6f74206d61746368207369676e61747572656000830152602082019050919050565b6000611fdd601a836126b7565b91507f496e736372697074696f6e20646f6573206e6f742065786973740000000000006000830152602082019050919050565b600061201d6002836126c8565b91507f19010000000000000000000000000000000000000000000000000000000000006000830152600282019050919050565b600061205d6014836126b7565b91507f4e6f6e6578697374656e7420746f6b656e2049440000000000000000000000006000830152602082019050919050565b600061209d6029836126b7565b91507f4f70657261746f722063616e6e6f74206265207468652073616d65206173207460008301527f68652063616c6c657200000000000000000000000000000000000000000000006020830152604082019050919050565b6000612103601b836126b7565b91507f496e736372697074696f6e20646f6573206e6f742065786973742e00000000006000830152602082019050919050565b6000612143603e836126b7565b91507f43616e6e6f7420617070726f7665207468652027746f2720616464726573732060008301527f61732069742062656c6f6e677320746f20746865206e6674206f776e657200006020830152604082019050919050565b60006121a96025836126b7565b91507f496e736372697074696f6e20646f6573206e6f7420657869737420617420746860008301527f69732049440000000000000000000000000000000000000000000000000000006020830152604082019050919050565b600061220f6030836126b7565b91507f417070726f76652063616c6c6572206973206e6f74206f776e6572206e6f722060008301527f617070726f76656420666f7220616c6c000000000000000000000000000000006020830152604082019050919050565b60006122756032836126b7565b91507f43616c6c657220646f6573206e6f74206f776e20696e736372697074696f6e2060008301527f6f72206973206e6f7420617070726f76656400000000000000000000000000006020830152604082019050919050565b6122d78161271b565b82525050565b60006122e882612010565b91506122f48285611f40565b6020820191506123048284611f40565b6020820191508190509392505050565b60006020820190506123296000830184611f13565b92915050565b60006060820190506123446000830186611f13565b6123516020830185611f31565b81810360408301526123638184611f57565b9050949350505050565b60006040820190506123826000830185611f13565b61238f60208301846122ce565b9392505050565b60006020820190506123ab6000830184611f22565b92915050565b60006020820190506123c66000830184611f31565b92915050565b600060c0820190506123e16000830189611f31565b6123ee6020830188611f13565b6123fb60408301876122ce565b6124086060830186611f31565b6124156080830185611f31565b61242260a08301846122ce565b979650505050505050565b600060a0820190506124426000830188611f31565b61244f6020830187611f31565b61245c6040830186611f31565b61246960608301856122ce565b6124766080830184611f13565b9695505050505050565b6000602082019050818103600083015261249a8184611f57565b905092915050565b600060208201905081810360008301526124bb81611f90565b9050919050565b600060208201905081810360008301526124db81611fd0565b9050919050565b600060208201905081810360008301526124fb81612050565b9050919050565b6000602082019050818103600083015261251b81612090565b9050919050565b6000602082019050818103600083015261253b816120f6565b9050919050565b6000602082019050818103600083015261255b81612136565b9050919050565b6000602082019050818103600083015261257b8161219c565b9050919050565b6000602082019050818103600083015261259b81612202565b9050919050565b600060208201905081810360008301526125bb81612268565b9050919050565b60006020820190506125d760008301846122ce565b92915050565b60006060820190506125f260008301866122ce565b6125ff6020830185611f31565b81810360408301526126118184611f57565b9050949350505050565b6000604051905081810181811067ffffffffffffffff8211171561264257612641612771565b5b8060405250919050565b600067ffffffffffffffff82111561266757612666612771565b5b601f19601f8301169050602081019050919050565b600067ffffffffffffffff82111561269757612696612771565b5b601f19601f8301169050602081019050919050565b600081519050919050565b600082825260208201905092915050565b600081905092915050565b60006126de826126fb565b9050919050565b60008115159050919050565b6000819050919050565b600073ffffffffffffffffffffffffffffffffffffffff82169050919050565b6000819050919050565b82818337600083830152505050565b60005b83811015612752578082015181840152602081019050612737565b83811115612761576000848401525b50505050565b6000819050919050565bfe5b6000601f19601f8301169050919050565b61278d816126d3565b811461279857600080fd5b50565b6127a4816126e5565b81146127af57600080fd5b50565b6127bb816126f1565b81146127c657600080fd5b50565b6127d28161271b565b81146127dd57600080fd5b5056fe45434453413a20696e76616c6964207369676e6174757265202773272076616c756545434453413a20696e76616c6964207369676e6174757265202776272076616c7565a26469706673582212201ceeaaeef106f59bc2de7555021802b21c6b87145f6bacf280298aafe5b2f0d364736f6c63430007040033",
  "immutableReferences": {},
  "source": "pragma experimental ABIEncoderV2;\npragma solidity 0.7.4;\n\n// SPDX-License-Identifier: MIT\n\nimport \"./InscribeInterface.sol\";\n\nimport \"../node_modules/@openzeppelin/contracts/token/ERC721/IERC721.sol\";\nimport \"../node_modules/@openzeppelin/contracts/utils/Strings.sol\";\nimport \"../node_modules/@openzeppelin/contracts/cryptography/ECDSA.sol\";\n\n\ncontract Inscribe is InscribeInterface {\n    using Strings for uint256;\n    using ECDSA for bytes32;\n        \n    // Storage of inscriptions\n    mapping (uint256 => Inscription) private _inscriptions;\n\n    // Mapping from an NFT address to a mapping of a token ID to an approved address\n    mapping (address => mapping (uint256 => address)) private _inscriptionApprovals;\n\n    // Mapping from owner to operator approvals\n    mapping (address => mapping (address => bool)) private _operatorApprovals;\n\n    mapping (address => uint256) private _sigNonces;\n\n    uint256 latestInscriptionId;\n\n    //keccak256(\"AddInscription(address nftAddress,uint256 tokenId,bytes32 contentHash,string inscriptionURI,uint256 nonce)\");\n    bytes32 public constant ADD_INSCRIPTION_TYPEHASH = 0x151052e7e52b0f0ec660ece1cc8d4e6463502663c19230798feeae51d10c8556;\n\n    constructor () {\n        latestInscriptionId = 1;\n    }\n\n    function getSigNonce(address inscriber) external view override returns (uint256) {\n        return _sigNonces[inscriber];\n    }\n\n    function getNFTLocation(uint256 inscriptionId) external view override returns (address nftAddress, uint256 tokenId) {\n        require(_inscriptionExists(inscriptionId), \"Inscription does not exist.\");\n        NFTLocation memory location = _inscriptions[inscriptionId].location;\n        return (location.nftAddress, location.tokenId);\n    }\n\n    function getInscriptionData(uint256 inscriptionId) external view override returns (address inscriber, bytes32 contentHash, string memory inscriptionURI) {\n        require(_inscriptionExists(inscriptionId), \"Inscription does not exist.\");\n        InscriptionData memory data = _inscriptions[inscriptionId].data;\n        return (data.inscriber, data.contentHash, data.inscriptionURI);\n    }\n\n    /**\n     * @dev See {InscribeInterface-getInscriptionURI}.\n     */\n    function getInscriptionURI(uint256 inscriptionId) external view override returns (string memory inscriptionURI) {\n        require(_inscriptionExists(inscriptionId), \"Inscription does not exist\");\n        Inscription memory inscription = _inscriptions[inscriptionId];\n        return inscription.data.inscriptionURI;\n    }\n\n    /**\n     * @dev See {InscribeApprovalInterface-approve}.\n     */\n    function approve(address to, address nftAddress, uint256 tokenId) public override {\n        address owner = _ownerOf(nftAddress, tokenId);\n        require(owner != address(0), \"Nonexistent token ID\");\n\n        require(to != owner, \"Cannot approve the 'to' address as it belongs to the nft owner\");\n\n        require(msg.sender == owner || isApprovedForAll(owner, msg.sender), \"Approve caller is not owner nor approved for all\");\n\n        _approve(to, nftAddress, tokenId);\n    }\n\n    /**\n     * @dev See {InscribeApprovalInterface-getApproved}.\n     */\n    function getApproved(address nftAddress, uint256 tokenId) public view override returns (address) {\n        return _inscriptionApprovals[nftAddress][tokenId];\n    }\n\n    /**\n     * @dev See {InscribeApprovalInterface-setApprovalForAll}.\n     */\n    function setApprovalForAll(address operator, bool approved) external override {\n        require(operator != msg.sender, \"Operator cannot be the same as the caller\");\n\n        _operatorApprovals[msg.sender][operator] = approved;\n        emit ApprovalForAll(msg.sender, operator, approved);    \n    }\n\n    /**\n     * @dev See {InscribeApprovalInterface-isApprovedForAll}.\n     */\n    function isApprovedForAll(address owner, address operator) public view override returns (bool) {\n        return _operatorApprovals[owner][operator];\n    }\n    \n    /**\n     * @dev See {InscribeInterface-addInscription}.\n     */\n    function addInscription(\n        NFTLocation memory location,\n        InscriptionData memory data,\n        bytes memory sig\n    ) external override {\n        require(data.inscriber != address(0));\n        require(location.nftAddress != address(0));\n\n\n        Inscription memory inscription = Inscription(location, data);\n\n        bytes32 digest = _generateAddInscriptionHash(inscription);\n\n        // Verifies the signature\n        require(_recoverSigner(digest, sig) == inscription.data.inscriber, \"Address does not match signature\");\n\n        _addInscription(inscription, latestInscriptionId);\n\n        latestInscriptionId++;\n    }\n\n        /**\n     * @dev See {InscribeInterface-removeInscription}.\n     */\n    function removeInscription(uint256 inscriptionId) external override {\n        Inscription memory inscription = _inscriptions[inscriptionId];\n        require(_inscriptionExists(inscriptionId), \"Inscription does not exist at this ID\");\n\n        // Verifies that the msg.sender has permissions to remove an inscription\n        require(_isApprovedOrOwner(msg.sender, inscription.location.nftAddress, inscription.location.tokenId), \"Caller does not own inscription or is not approved\");\n\n        _removeInscription(inscription, inscriptionId);\n    }\n\n    /**\n     * @dev Returns whether the `inscriber` is allowed to add or remove an inscription to `tokenId` at `nftAddress`.\n     *\n     * Requirements:\n     *\n     * - `tokenId` must exist.\n     */\n    function _isApprovedOrOwner(address inscriber, address nftAddress, uint256 tokenId) private view returns (bool) {\n        address owner = _ownerOf(nftAddress, tokenId);\n        require(owner != address(0), \"Nonexistent token ID\");\n        return (inscriber == owner || getApproved(nftAddress, tokenId) == inscriber || isApprovedForAll(owner, inscriber));\n    }\n    \n    /**\n     * @dev Adds an approval on chain\n     */\n    function _approve(address to, address nftAddress, uint256 tokenId) internal {\n        _inscriptionApprovals[nftAddress][tokenId] = to;\n        emit Approval(_ownerOf(nftAddress, tokenId), to, nftAddress, tokenId);\n    }\n    \n    /**\n     * @dev Returns the owner of `tokenId` at `nftAddress`\n     */\n    function _ownerOf(address nftAddress, uint256 tokenId) internal view returns (address){\n        IERC721 nftContractInterface = IERC721(nftAddress);\n        return nftContractInterface.ownerOf(tokenId);\n    }\n    \n    /**\n     * @dev Removes an inscription on-chain after all requirements were met\n     */\n    function _removeInscription(Inscription memory inscription, uint256 inscriptionId) private {\n        // Clear approvals from the previous inscriber\n        _approve(address(0), inscription.location.nftAddress, inscription.location.tokenId);\n        \n        // Remove Inscription\n        delete _inscriptions[inscriptionId];\n        \n        emit InscriptionRemoved(\n            inscriptionId, \n            inscription.location.nftAddress, \n            inscription.location.tokenId, \n            inscription.data.inscriber, \n            inscription.data.contentHash,\n            inscription.data.inscriptionURI);\n    }\n    \n    /**\n    * @dev Adds an inscription on-chain with optional URI after all requirements were met\n    */\n    function _addInscription(Inscription memory inscription, uint256 inscriptionId) private {\n                        \n        _inscriptions[inscriptionId] = inscription;\n        emit InscriptionAdded(\n            inscriptionId, \n            inscription.location.nftAddress, \n            inscription.location.tokenId, \n            inscription.data.inscriber, \n            inscription.data.contentHash, \n            inscription.data.inscriptionURI);\n    }\n    \n    /**\n     * @dev Verifies if an inscription at `inscriptionID` exists\n     */ \n    function _inscriptionExists(uint256 inscriptionId) private view returns (bool) {\n        return _inscriptions[inscriptionId].data.inscriber != address(0);\n    }\n\n    /**\n     * @dev Generates the EIP712 hash that was signed\n     */ \n    function _generateAddInscriptionHash(\n        Inscription memory inscription\n    ) private view returns (bytes32) {\n\n        bytes32 domainSeparator = _calculateDomainSeparator();\n\n        // Recreate signed message \n        return keccak256(\n            abi.encodePacked(\n                \"\\x19\\x01\",\n                domainSeparator,\n                keccak256(\n                    abi.encode(\n                        ADD_INSCRIPTION_TYPEHASH,\n                        inscription.location.nftAddress,\n                        inscription.location.tokenId,\n                        inscription.data.contentHash,\n                        keccak256(bytes(inscription.data.inscriptionURI)),\n                        _sigNonces[inscription.data.inscriber]\n                    )\n                )\n            )\n        );\n    }\n    \n    function _recoverSigner(bytes32 _hash, bytes memory _sig) private pure returns (address) {\n        address signer = ECDSA.recover(_hash, _sig);\n        require(signer != address(0));\n\n        return signer;\n    }\n\n    /**\n     * @dev Calculates EIP712 DOMAIN_SEPARATOR based on the current contract and chain ID.\n     */\n    function _calculateDomainSeparator() private view returns (bytes32) {\n        uint256 chainID;\n        /* solium-disable-next-line */\n        assembly {\n            chainID := chainid()\n        }\n\n        return\n            keccak256(\n                abi.encode(\n                    keccak256(\n                        \"EIP712Domain(string name,string version,uint256 chainId,address verifyingContract)\"\n                    ),\n                    keccak256(bytes(\"Inscribe\")),\n                    keccak256(bytes(\"1\")),\n                    chainID,\n                    address(this)\n                )\n            );\n    }\n}",
  "sourcePath": "/Users/jingsongdu/Documents/core/contracts/Inscribe.sol",
  "compiler": {
    "name": "solc",
    "version": "0.7.4+commit.3f05b770.Emscripten.clang"
  },
  "schemaVersion": "3.3.4",
  "updatedAt": "2021-03-24T04:41:33.936Z",
  "networkType": "ethereum",
  "devdoc": {
    "kind": "dev",
    "methods": {
      "addInscription((address,uint256),(address,bytes32,string),bytes)": {
        "details": "See {InscribeInterface-addInscription}."
      },
      "approve(address,address,uint256)": {
        "details": "See {InscribeApprovalInterface-approve}."
      },
      "getApproved(address,uint256)": {
        "details": "See {InscribeApprovalInterface-getApproved}."
      },
      "getInscriptionData(uint256)": {
        "details": "Fetches the inscription location at inscriptionID  Requirements: - `inscriptionID` inscriptionID must exist "
      },
      "getInscriptionURI(uint256)": {
        "details": "See {InscribeInterface-getInscriptionURI}."
      },
      "getNFTLocation(uint256)": {
        "details": "Fetches the inscription location at inscriptionID  Requirements: - `inscriptionID` inscriptionID must exist "
      },
      "isApprovedForAll(address,address)": {
        "details": "See {InscribeApprovalInterface-isApprovedForAll}."
      },
      "removeInscription(uint256)": {
        "details": "See {InscribeInterface-removeInscription}."
      },
      "setApprovalForAll(address,bool)": {
        "details": "See {InscribeApprovalInterface-setApprovalForAll}."
      }
    },
    "version": 1
  },
  "userdoc": {
    "kind": "user",
    "methods": {},
    "version": 1
  }
}