{
  "contractName": "Inscribe",
  "abi": [
    {
      "inputs": [],
      "stateMutability": "nonpayable",
      "type": "constructor"
    },
    {
      "anonymous": false,
      "inputs": [
        {
          "indexed": true,
          "internalType": "bytes32",
          "name": "inscriptionId",
          "type": "bytes32"
        },
        {
          "indexed": true,
          "internalType": "address",
          "name": "nftAddress",
          "type": "address"
        },
        {
          "indexed": false,
          "internalType": "uint256",
          "name": "tokenId",
          "type": "uint256"
        },
        {
          "indexed": false,
          "internalType": "uint256",
          "name": "chainId",
          "type": "uint256"
        },
        {
          "indexed": true,
          "internalType": "address",
          "name": "inscriber",
          "type": "address"
        },
        {
          "indexed": false,
          "internalType": "bytes32",
          "name": "contentHash",
          "type": "bytes32"
        },
        {
          "indexed": false,
          "internalType": "string",
          "name": "inscriptionURI",
          "type": "string"
        }
      ],
      "name": "InscriptionAdded",
      "type": "event"
    },
    {
      "anonymous": false,
      "inputs": [
        {
          "indexed": false,
          "internalType": "bytes32",
          "name": "inscriptionId",
          "type": "bytes32"
        },
        {
          "indexed": false,
          "internalType": "bool",
          "name": "permission",
          "type": "bool"
        }
      ],
      "name": "WhitelistAdjusted",
      "type": "event"
    },
    {
      "inputs": [],
      "name": "ADD_INSCRIPTION_TYPEHASH",
      "outputs": [
        {
          "internalType": "bytes32",
          "name": "",
          "type": "bytes32"
        }
      ],
      "stateMutability": "view",
      "type": "function"
    },
    {
      "inputs": [],
      "name": "DOMAIN_SEPARATOR",
      "outputs": [
        {
          "internalType": "bytes32",
          "name": "",
          "type": "bytes32"
        }
      ],
      "stateMutability": "view",
      "type": "function"
    },
    {
      "inputs": [
        {
          "internalType": "bytes32",
          "name": "inscriptionId",
          "type": "bytes32"
        }
      ],
      "name": "getNFTLocation",
      "outputs": [
        {
          "internalType": "address",
          "name": "nftAddress",
          "type": "address"
        },
        {
          "internalType": "uint256",
          "name": "tokenId",
          "type": "uint256"
        },
        {
          "internalType": "uint256",
          "name": "chainId",
          "type": "uint256"
        }
      ],
      "stateMutability": "view",
      "type": "function"
    },
    {
      "inputs": [
        {
          "internalType": "bytes32",
          "name": "inscriptionId",
          "type": "bytes32"
        }
      ],
      "name": "getInscriptionData",
      "outputs": [
        {
          "internalType": "address",
          "name": "inscriber",
          "type": "address"
        },
        {
          "internalType": "bytes32",
          "name": "contentHash",
          "type": "bytes32"
        },
        {
          "internalType": "string",
          "name": "inscriptionURI",
          "type": "string"
        }
      ],
      "stateMutability": "view",
      "type": "function"
    },
    {
      "inputs": [
        {
          "internalType": "bytes32",
          "name": "inscriptionId",
          "type": "bytes32"
        },
        {
          "internalType": "address",
          "name": "owner",
          "type": "address"
        }
      ],
      "name": "getPermission",
      "outputs": [
        {
          "internalType": "bool",
          "name": "",
          "type": "bool"
        }
      ],
      "stateMutability": "view",
      "type": "function"
    },
    {
      "inputs": [
        {
          "internalType": "bytes32",
          "name": "inscriptionId",
          "type": "bytes32"
        }
      ],
      "name": "getInscriptionURI",
      "outputs": [
        {
          "internalType": "string",
          "name": "inscriptionURI",
          "type": "string"
        }
      ],
      "stateMutability": "view",
      "type": "function"
    },
    {
      "inputs": [
        {
          "internalType": "bytes32[]",
          "name": "inscriptionIds",
          "type": "bytes32[]"
        },
        {
          "internalType": "bool[]",
          "name": "permissions",
          "type": "bool[]"
        }
      ],
      "name": "setPermissions",
      "outputs": [],
      "stateMutability": "nonpayable",
      "type": "function"
    },
    {
      "inputs": [
        {
          "components": [
            {
              "internalType": "address",
              "name": "nftAddress",
              "type": "address"
            },
            {
              "internalType": "uint256",
              "name": "tokenId",
              "type": "uint256"
            },
            {
              "internalType": "uint256",
              "name": "chainId",
              "type": "uint256"
            }
          ],
          "internalType": "struct InscribeInterface.NFTLocation",
          "name": "location",
          "type": "tuple"
        },
        {
          "components": [
            {
              "internalType": "address",
              "name": "inscriber",
              "type": "address"
            },
            {
              "internalType": "bytes32",
              "name": "contentHash",
              "type": "bytes32"
            },
            {
              "internalType": "string",
              "name": "inscriptionURI",
              "type": "string"
            }
          ],
          "internalType": "struct InscribeInterface.InscriptionData",
          "name": "data",
          "type": "tuple"
        },
        {
          "internalType": "bool",
          "name": "addWhiteList",
          "type": "bool"
        },
        {
          "internalType": "bytes",
          "name": "sig",
          "type": "bytes"
        }
      ],
      "name": "addInscription",
      "outputs": [],
      "stateMutability": "nonpayable",
      "type": "function"
    },
    {
      "inputs": [
        {
          "components": [
            {
              "internalType": "address",
              "name": "nftAddress",
              "type": "address"
            },
            {
              "internalType": "uint256",
              "name": "tokenId",
              "type": "uint256"
            },
            {
              "internalType": "uint256",
              "name": "chainId",
              "type": "uint256"
            }
          ],
          "internalType": "struct InscribeInterface.NFTLocation",
          "name": "location",
          "type": "tuple"
        }
      ],
      "name": "getNextInscriptionId",
      "outputs": [
        {
          "internalType": "bytes32",
          "name": "",
          "type": "bytes32"
        }
      ],
      "stateMutability": "view",
      "type": "function"
    }
  ],
  "bytecode": "0x60806040523480156200001157600080fd5b5060004690507f8b73c3c69bb8fe3d512ecc4cf759cc79239f7b179b0ffacaa9a75d522b39400f6040518060400160405280600881526020017f496e736372696265000000000000000000000000000000000000000000000000815250805190602001206040518060400160405280600181526020017f3100000000000000000000000000000000000000000000000000000000000000815250805190602001208330604051602001620000ca95949392919062000120565b6040516020818303038152906040528051906020012060038190555050620001c5565b620000f8816200017d565b82525050565b620001098162000191565b82525050565b6200011a81620001bb565b82525050565b600060a082019050620001376000830188620000fe565b620001466020830187620000fe565b620001556040830186620000fe565b6200016460608301856200010f565b620001736080830184620000ed565b9695505050505050565b60006200018a826200019b565b9050919050565b6000819050919050565b600073ffffffffffffffffffffffffffffffffffffffff82169050919050565b6000819050919050565b611e2d80620001d56000396000f3fe608060405234801561001057600080fd5b50600436106100935760003560e01c806360d6c7cf1161006657806360d6c7cf14610134578063767c85ca14610164578063bcf6ce2714610180578063ce727975146101b0578063f0ed9be3146101e257610093565b80633644e5151461009857806337bbe190146100b65780633a8540f7146100e8578063513ab93d14610104575b600080fd5b6100a0610200565b6040516100ad91906119b3565b60405180910390f35b6100d060048036038101906100cb9190611531565b610206565b6040516100df93929190611961565b60405180910390f35b61010260048036038101906100fd91906114c5565b610304565b005b61011e60048036038101906101199190611596565b610453565b60405161012b91906119b3565b60405180910390f35b61014e6004803603810190610149919061155a565b6104e1565b60405161015b9190611998565b60405180910390f35b61017e600480360381019061017991906115bf565b610549565b005b61019a60048036038101906101959190611531565b6106bd565b6040516101a79190611a6d565b60405180910390f35b6101ca60048036038101906101c59190611531565b6108d3565b6040516101d993929190611923565b60405180910390f35b6101ea610a69565b6040516101f791906119b3565b60405180910390f35b60035481565b600080600061021484610a90565b610253576040517f08c379a000000000000000000000000000000000000000000000000000000000815260040161024a90611aef565b60405180910390fd5b61025b6110a9565b6000808681526020019081526020016000206000016040518060600160405290816000820160009054906101000a900473ffffffffffffffffffffffffffffffffffffffff1673ffffffffffffffffffffffffffffffffffffffff1673ffffffffffffffffffffffffffffffffffffffff168152602001600182015481526020016002820154815250509050806000015181602001518260400151935093509350509193909250565b8051825114610348576040517f08c379a000000000000000000000000000000000000000000000000000000000815260040161033f90611acf565b60405180910390fd5b60005b825181101561044e5781818151811061036057fe5b60200260200101516001600085848151811061037857fe5b6020026020010151815260200190815260200160002060003373ffffffffffffffffffffffffffffffffffffffff1673ffffffffffffffffffffffffffffffffffffffff16815260200190815260200160002060006101000a81548160ff0219169083151502179055507f33259070740b5df1e8b9f499f0921869191fbedc14d9c2f72afa939b74e3532483828151811061040f57fe5b602002602001015183838151811061042357fe5b6020026020010151604051610439929190611a44565b60405180910390a1808060010191505061034b565b505050565b60008082600001518360200151846040015160405160200161047793929190611872565b60405160208183030381529060405280519060200120905060006002600083815260200190815260200160002054905060004690508282826040516020016104c1939291906118af565b604051602081830303815290604052805190602001209350505050919050565b60006001600084815260200190815260200160002060008373ffffffffffffffffffffffffffffffffffffffff1673ffffffffffffffffffffffffffffffffffffffff16815260200190815260200160002060009054906101000a900460ff16905092915050565b600073ffffffffffffffffffffffffffffffffffffffff16836000015173ffffffffffffffffffffffffffffffffffffffff16141561058757600080fd5b600073ffffffffffffffffffffffffffffffffffffffff16846000015173ffffffffffffffffffffffffffffffffffffffff1614156105c557600080fd5b6105cd6110e0565b604051806040016040528086815260200185815250905060006105f38260000151610453565b905060006106018383610b01565b905082602001516000015173ffffffffffffffffffffffffffffffffffffffff1661062c8286610bb3565b73ffffffffffffffffffffffffffffffffffffffff1614610682576040517f08c379a000000000000000000000000000000000000000000000000000000000815260040161067990611a8f565b60405180910390fd5b61068f8360000151610c06565b84156106aa5760016000838152602001908152602001600020505b6106b48383610c68565b50505050505050565b60606106c76110e0565b600080848152602001908152602001600020604051806040016040529081600082016040518060600160405290816000820160009054906101000a900473ffffffffffffffffffffffffffffffffffffffff1673ffffffffffffffffffffffffffffffffffffffff1673ffffffffffffffffffffffffffffffffffffffff168152602001600182015481526020016002820154815250508152602001600382016040518060600160405290816000820160009054906101000a900473ffffffffffffffffffffffffffffffffffffffff1673ffffffffffffffffffffffffffffffffffffffff1673ffffffffffffffffffffffffffffffffffffffff16815260200160018201548152602001600282018054600181600116156101000203166002900480601f01602080910402602001604051908101604052809291908181526020018280546001816001161561010002031660029004801561086b5780601f106108405761010080835404028352916020019161086b565b820191906000526020600020905b81548152906001019060200180831161084e57829003601f168201915b50505050508152505081525050905061088383610a90565b6108c2576040517f08c379a00000000000000000000000000000000000000000000000000000000081526004016108b990611aaf565b60405180910390fd5b806020015160400151915050919050565b60008060606108e184610a90565b610920576040517f08c379a000000000000000000000000000000000000000000000000000000000815260040161091790611aef565b60405180910390fd5b610928611106565b6000808681526020019081526020016000206003016040518060600160405290816000820160009054906101000a900473ffffffffffffffffffffffffffffffffffffffff1673ffffffffffffffffffffffffffffffffffffffff1673ffffffffffffffffffffffffffffffffffffffff16815260200160018201548152602001600282018054600181600116156101000203166002900480601f016020809104026020016040519081016040528092919081815260200182805460018160011615610100020316600290048015610a415780601f10610a1657610100808354040283529160200191610a41565b820191906000526020600020905b815481529060010190602001808311610a2457829003601f168201915b5050505050815250509050806000015181602001518260400151935093509350509193909250565b7f40627018dea8ab5140a274cea9c0761b60835bc70d6c644f7220c2e5823cd29a60001b81565b60008073ffffffffffffffffffffffffffffffffffffffff1660008084815260200190815260200160002060030160000160009054906101000a900473ffffffffffffffffffffffffffffffffffffffff1673ffffffffffffffffffffffffffffffffffffffff1614159050919050565b60006003547f40627018dea8ab5140a274cea9c0761b60835bc70d6c644f7220c2e5823cd29a60001b84600001516000015185600001516020015186600001516040015187602001516020015188602001516040015188604051602001610b6e97969594939291906119ce565b60405160208183030381529060405280519060200120604051602001610b959291906118ec565b60405160208183030381529060405280519060200120905092915050565b600080610bc08484610dfd565b9050600073ffffffffffffffffffffffffffffffffffffffff168173ffffffffffffffffffffffffffffffffffffffff161415610bfc57600080fd5b8091505092915050565b6000816000015182602001518360400151604051602001610c2993929190611872565b60405160208183030381529060405280519060200120905060026000828152602001908152602001600020600081548092919060010191905055505050565b8160008083815260200190815260200160002060008201518160000160008201518160000160006101000a81548173ffffffffffffffffffffffffffffffffffffffff021916908373ffffffffffffffffffffffffffffffffffffffff1602179055506020820151816001015560408201518160020155505060208201518160030160008201518160000160006101000a81548173ffffffffffffffffffffffffffffffffffffffff021916908373ffffffffffffffffffffffffffffffffffffffff160217905550602082015181600101556040820151816002019080519060200190610d57929190611140565b50505090505081602001516000015173ffffffffffffffffffffffffffffffffffffffff1682600001516000015173ffffffffffffffffffffffffffffffffffffffff16827fe91d0acb66148963e2b286eb6744fab198ef5847744e9310d27f3c1f6f032b55856000015160200151866000015160400151876020015160200151886020015160400151604051610df19493929190611b0f565b60405180910390a45050565b60006041825114610e76576040517f08c379a000000000000000000000000000000000000000000000000000000000815260040180806020018281038252601f8152602001807f45434453413a20696e76616c6964207369676e6174757265206c656e6774680081525060200191505060405180910390fd5b60008060006020850151925060408501519150606085015160001a9050610e9f86828585610eaa565b935050505092915050565b60007f7fffffffffffffffffffffffffffffff5d576e7357a4501ddfe92f46681b20a08260001c1115610f28576040517f08c379a0000000000000000000000000000000000000000000000000000000008152600401808060200182810382526022815260200180611db46022913960400191505060405180910390fd5b601b8460ff161480610f3d5750601c8460ff16145b610f92576040517f08c379a0000000000000000000000000000000000000000000000000000000008152600401808060200182810382526022815260200180611dd66022913960400191505060405180910390fd5b600060018686868660405160008152602001604052604051808581526020018460ff1681526020018381526020018281526020019450505050506020604051602081039080840390855afa158015610fee573d6000803e3d6000fd5b505050602060405103519050600073ffffffffffffffffffffffffffffffffffffffff168173ffffffffffffffffffffffffffffffffffffffff16141561109d576040517f08c379a00000000000000000000000000000000000000000000000000000000081526004018080602001828103825260188152602001807f45434453413a20696e76616c6964207369676e6174757265000000000000000081525060200191505060405180910390fd5b80915050949350505050565b6040518060600160405280600073ffffffffffffffffffffffffffffffffffffffff16815260200160008152602001600081525090565b60405180604001604052806110f36110a9565b8152602001611100611106565b81525090565b6040518060600160405280600073ffffffffffffffffffffffffffffffffffffffff16815260200160008019168152602001606081525090565b828054600181600116156101000203166002900490600052602060002090601f01602090048101928261117657600085556111bd565b82601f1061118f57805160ff19168380011785556111bd565b828001600101855582156111bd579182015b828111156111bc5782518255916020019190600101906111a1565b5b5090506111ca91906111ce565b5090565b5b808211156111e75760008160009055506001016111cf565b5090565b6000813590506111fa81611d57565b92915050565b600082601f83011261121157600080fd5b813561122461121f82611b8c565b611b5b565b9150818183526020840193506020810190508385602084028201111561124957600080fd5b60005b83811015611279578161125f8882611306565b84526020840193506020830192505060018101905061124c565b5050505092915050565b600082601f83011261129457600080fd5b81356112a76112a282611bb8565b611b5b565b915081818352602084019350602081019050838560208402820111156112cc57600080fd5b60005b838110156112fc57816112e2888261131b565b8452602084019350602083019250506001810190506112cf565b5050505092915050565b60008135905061131581611d6e565b92915050565b60008135905061132a81611d85565b92915050565b600082601f83011261134157600080fd5b813561135461134f82611be4565b611b5b565b9150808252602083016020830185838301111561137057600080fd5b61137b838284611cbd565b50505092915050565b600082601f83011261139557600080fd5b81356113a86113a382611c14565b611b5b565b915080825260208301602083018583830111156113c457600080fd5b6113cf838284611cbd565b50505092915050565b6000606082840312156113ea57600080fd5b6113f46060611b5b565b90506000611404848285016111eb565b60008301525060206114188482850161131b565b602083015250604082013567ffffffffffffffff81111561143857600080fd5b61144484828501611384565b60408301525092915050565b60006060828403121561146257600080fd5b61146c6060611b5b565b9050600061147c848285016111eb565b6000830152506020611490848285016114b0565b60208301525060406114a4848285016114b0565b60408301525092915050565b6000813590506114bf81611d9c565b92915050565b600080604083850312156114d857600080fd5b600083013567ffffffffffffffff8111156114f257600080fd5b6114fe85828601611283565b925050602083013567ffffffffffffffff81111561151b57600080fd5b61152785828601611200565b9150509250929050565b60006020828403121561154357600080fd5b60006115518482850161131b565b91505092915050565b6000806040838503121561156d57600080fd5b600061157b8582860161131b565b925050602061158c858286016111eb565b9150509250929050565b6000606082840312156115a857600080fd5b60006115b684828501611450565b91505092915050565b60008060008060c085870312156115d557600080fd5b60006115e387828801611450565b945050606085013567ffffffffffffffff81111561160057600080fd5b61160c878288016113d8565b935050608061161d87828801611306565b92505060a085013567ffffffffffffffff81111561163a57600080fd5b61164687828801611330565b91505092959194509250565b61165b81611c6b565b82525050565b61167261166d82611c6b565b611cff565b82525050565b61168181611c7d565b82525050565b61169081611c89565b82525050565b6116a76116a282611c89565b611d11565b82525050565b60006116b882611c44565b6116c28185611c4f565b93506116d2818560208601611ccc565b6116db81611d39565b840191505092915050565b60006116f3602083611c4f565b91507f4164647265737320646f6573206e6f74206d61746368207369676e61747572656000830152602082019050919050565b6000611733601a83611c4f565b91507f496e736372697074696f6e20646f6573206e6f742065786973740000000000006000830152602082019050919050565b6000611773602683611c4f565b91507f41727261797320706173736564206d757374206265206f66207468652073616d60008301527f652073697a6500000000000000000000000000000000000000000000000000006020830152604082019050919050565b60006117d9600283611c60565b91507f19010000000000000000000000000000000000000000000000000000000000006000830152600282019050919050565b6000611819601b83611c4f565b91507f496e736372697074696f6e20646f6573206e6f742065786973742e00000000006000830152602082019050919050565b61185581611cb3565b82525050565b61186c61186782611cb3565b611d2d565b82525050565b600061187e8286611661565b60148201915061188e828561185b565b60208201915061189e828461185b565b602082019150819050949350505050565b60006118bb8286611696565b6020820191506118cb828561185b565b6020820191506118db828461185b565b602082019150819050949350505050565b60006118f7826117cc565b91506119038285611696565b6020820191506119138284611696565b6020820191508190509392505050565b60006060820190506119386000830186611652565b6119456020830185611687565b818103604083015261195781846116ad565b9050949350505050565b60006060820190506119766000830186611652565b611983602083018561184c565b611990604083018461184c565b949350505050565b60006020820190506119ad6000830184611678565b92915050565b60006020820190506119c86000830184611687565b92915050565b600060e0820190506119e3600083018a611687565b6119f06020830189611652565b6119fd604083018861184c565b611a0a606083018761184c565b611a176080830186611687565b81810360a0830152611a2981856116ad565b9050611a3860c0830184611687565b98975050505050505050565b6000604082019050611a596000830185611687565b611a666020830184611678565b9392505050565b60006020820190508181036000830152611a8781846116ad565b905092915050565b60006020820190508181036000830152611aa8816116e6565b9050919050565b60006020820190508181036000830152611ac881611726565b9050919050565b60006020820190508181036000830152611ae881611766565b9050919050565b60006020820190508181036000830152611b088161180c565b9050919050565b6000608082019050611b24600083018761184c565b611b31602083018661184c565b611b3e6040830185611687565b8181036060830152611b5081846116ad565b905095945050505050565b6000604051905081810181811067ffffffffffffffff82111715611b8257611b81611d37565b5b8060405250919050565b600067ffffffffffffffff821115611ba757611ba6611d37565b5b602082029050602081019050919050565b600067ffffffffffffffff821115611bd357611bd2611d37565b5b602082029050602081019050919050565b600067ffffffffffffffff821115611bff57611bfe611d37565b5b601f19601f8301169050602081019050919050565b600067ffffffffffffffff821115611c2f57611c2e611d37565b5b601f19601f8301169050602081019050919050565b600081519050919050565b600082825260208201905092915050565b600081905092915050565b6000611c7682611c93565b9050919050565b60008115159050919050565b6000819050919050565b600073ffffffffffffffffffffffffffffffffffffffff82169050919050565b6000819050919050565b82818337600083830152505050565b60005b83811015611cea578082015181840152602081019050611ccf565b83811115611cf9576000848401525b50505050565b6000611d0a82611d1b565b9050919050565b6000819050919050565b6000611d2682611d4a565b9050919050565b6000819050919050565bfe5b6000601f19601f8301169050919050565b60008160601b9050919050565b611d6081611c6b565b8114611d6b57600080fd5b50565b611d7781611c7d565b8114611d8257600080fd5b50565b611d8e81611c89565b8114611d9957600080fd5b50565b611da581611cb3565b8114611db057600080fd5b5056fe45434453413a20696e76616c6964207369676e6174757265202773272076616c756545434453413a20696e76616c6964207369676e6174757265202776272076616c7565a2646970667358221220865ae5c2937c8273e10c52dfcf79f2b7833794012843e8238a1f64646fb5f6fd64736f6c63430007040033",
  "immutableReferences": {},
  "source": "pragma experimental ABIEncoderV2;\npragma solidity 0.7.4;\n\n// SPDX-License-Identifier: MIT\n\nimport \"../node_modules/@openzeppelin/contracts/token/ERC721/IERC721.sol\";\nimport \"../node_modules/@openzeppelin/contracts/utils/Strings.sol\";\nimport \"../node_modules/@openzeppelin/contracts/cryptography/ECDSA.sol\";\nimport \"./InscribeInterface.sol\";\n\n\ncontract Inscribe is InscribeInterface {\n    using Strings for uint256;\n    using ECDSA for bytes32;\n        \n    mapping (bytes32 => Inscription) private _inscriptions;\n\n    mapping (bytes32 => mapping (address => bool)) private _whiteList;\n\n    // Mapping from a hash of (nftAddress, tokenId, chainId) to a nonce that incrementally goes up\n    mapping (bytes32 => uint256) inscriptionNonces;\n\n\n    bytes32 public DOMAIN_SEPARATOR;\n    //keccak256(\"AddInscription(address nftAddress, uint256 tokenId, uint256 chainId, address inscriber, bytes32 contentHash, string inscriptionURI)\");\n    bytes32 public constant ADD_INSCRIPTION_TYPEHASH = 0x40627018dea8ab5140a274cea9c0761b60835bc70d6c644f7220c2e5823cd29a;\n\n    constructor () {\n        uint256 chainID;\n        /* solium-disable-next-line */\n        assembly {\n            chainID := chainid()\n        }\n\n        DOMAIN_SEPARATOR = keccak256(\n            abi.encode(\n                keccak256(\n                    \"EIP712Domain(string name,string version,uint256 chainId,address verifyingContract)\"\n                ),\n                keccak256(bytes(\"Inscribe\")),\n                keccak256(bytes(\"1\")),\n                chainID,\n                address(this)\n            )\n        );\n    }\n\n    function getNFTLocation(bytes32 inscriptionId) external view override returns (address nftAddress, uint256 tokenId, uint256 chainId) {\n        require(_inscriptionExists(inscriptionId), \"Inscription does not exist.\");\n        NFTLocation memory location =_inscriptions[inscriptionId].location;\n        return (location.nftAddress, location.tokenId, location.chainId);\n    }\n\n    function getInscriptionData(bytes32 inscriptionId) external view override returns (address inscriber, bytes32 contentHash, string memory inscriptionURI) {\n        require(_inscriptionExists(inscriptionId), \"Inscription does not exist.\");\n        InscriptionData memory data =_inscriptions[inscriptionId].data;\n        return (data.inscriber, data.contentHash, data.inscriptionURI);\n    }\n\n    function getPermission(bytes32 inscriptionId, address owner) external view override returns (bool) {\n        return _whiteList[inscriptionId][owner];\n    }\n\n    /**\n     * @dev See {InscribeInterface-getInscriptionURI}.\n     */\n    function getInscriptionURI(bytes32 inscriptionId) external view override returns (string memory inscriptionURI) {\n        Inscription memory inscription = _inscriptions[inscriptionId];\n        require(_inscriptionExists(inscriptionId), \"Inscription does not exist\");\n        return inscription.data.inscriptionURI;\n    }\n\n    function setPermissions(bytes32[] memory inscriptionIds, bool[] memory permissions) external override {\n        require(inscriptionIds.length == permissions.length, \"Arrays passed must be of the same size\");\n\n        for (uint256 i = 0; i < inscriptionIds.length; i++) {\n            _whiteList[inscriptionIds[i]][msg.sender] = permissions[i];\n            emit WhitelistAdjusted(inscriptionIds[i], permissions[i]);\n        }\n    }\n    \n    /**\n     * @dev See {InscribeInterface-addInscription}.\n     */\n    function addInscription(\n        NFTLocation memory location,\n        InscriptionData memory data,\n        bool addWhiteList,\n        bytes memory sig\n    ) external override {\n        require(data.inscriber != address(0));\n        require(location.nftAddress != address(0));\n\n        Inscription memory inscription = Inscription(location, data);\n\n        bytes32 inscriptionId = getNextInscriptionId(inscription.location);\n\n        bytes32 digest = _generateAddInscriptionHash(inscription, inscriptionId);\n\n        // Verifies the signature\n        require(recoverSigner(digest, sig) == inscription.data.inscriber, \"Address does not match signature\");\n\n        // Adjust nonce \n        _updateInscriptionNonce(inscription.location);\n\n        // Add whitelist\n        if (addWhiteList) {\n            _whiteList[inscriptionId];\n        }\n\n        _addInscription(inscription, inscriptionId);\n    }\n\n    // Deterministic way of fetching the next inscription ID of a given \n    function getNextInscriptionId(NFTLocation memory location) public override view returns (bytes32) {\n        bytes32 inscriptionHash = keccak256(abi.encodePacked(location.nftAddress, location.tokenId, location.chainId));\n\n        uint256 inscriptionNonce = inscriptionNonces[inscriptionHash];\n\n        uint256 chainID;\n        assembly {\n            chainID := chainid()\n        }\n\n        return keccak256(abi.encodePacked(inscriptionHash, inscriptionNonce, chainID));\n    }\n    \n    /**\n    * @dev Adds an inscription on-chain with optional URI after all requirements were met\n    */\n    function _addInscription(Inscription memory inscription, bytes32 inscriptionId) private {\n                        \n        _inscriptions[inscriptionId] = inscription;\n        emit InscriptionAdded(\n            inscriptionId, \n            inscription.location.nftAddress, \n            inscription.location.tokenId, \n            inscription.location.chainId, \n            inscription.data.inscriber, \n            inscription.data.contentHash, \n            inscription.data.inscriptionURI);\n    }\n    \n    /**\n     * @dev Verifies if an inscription at `inscriptionID` exists\n     */ \n    function _inscriptionExists(bytes32 inscriptionId) private view returns (bool) {\n        return _inscriptions[inscriptionId].data.inscriber != address(0);\n    }\n\n    function _generateAddInscriptionHash(\n        Inscription memory inscription,\n        bytes32 inscriptionId\n    ) private view returns (bytes32) {\n\n        // Recreate signed message \n        return keccak256(\n            abi.encodePacked(\n                \"\\x19\\x01\",\n                DOMAIN_SEPARATOR,\n                keccak256(\n                    abi.encode(\n                        ADD_INSCRIPTION_TYPEHASH,\n                        inscription.location.nftAddress,\n                        inscription.location.tokenId,\n                        inscription.location.chainId,\n                        inscription.data.contentHash,\n                        inscription.data.inscriptionURI,\n                        inscriptionId\n                    )\n                )\n            )\n        );\n    }\n\n    function _updateInscriptionNonce(NFTLocation memory location) internal {\n        bytes32 inscriptionHash = keccak256(abi.encodePacked(location.nftAddress, location.tokenId, location.chainId));\n\n        inscriptionNonces[inscriptionHash]++;\n    }\n    \n    function recoverSigner(bytes32 _hash, bytes memory _sig) private pure returns (address) {\n        address signer = ECDSA.recover(_hash, _sig);\n        require(signer != address(0));\n\n        return signer;\n    }\n}",
  "sourcePath": "/Users/jingsongdu/Documents/core/contracts/Inscribe.sol",
  "compiler": {
    "name": "solc",
    "version": "0.7.4+commit.3f05b770.Emscripten.clang"
  },
  "schemaVersion": "3.3.4",
  "updatedAt": "2021-03-21T15:08:02.902Z",
  "devdoc": {
    "kind": "dev",
    "methods": {
      "addInscription((address,uint256,uint256),(address,bytes32,string),bool,bytes)": {
        "details": "See {InscribeInterface-addInscription}."
      },
      "getInscriptionData(bytes32)": {
        "details": "Fetches the inscription location at inscriptionID  Requirements: - `inscriptionID` inscriptionID must exist "
      },
      "getInscriptionURI(bytes32)": {
        "details": "See {InscribeInterface-getInscriptionURI}."
      },
      "getNFTLocation(bytes32)": {
        "details": "Fetches the inscription location at inscriptionID  Requirements: - `inscriptionID` inscriptionID must exist "
      },
      "getPermission(bytes32,address)": {
        "details": "Fetches the permission for if an owner has allowed the inscription at inscriptionId If this value is false, front end must not display the inscription."
      }
    },
    "version": 1
  },
  "userdoc": {
    "kind": "user",
    "methods": {},
    "version": 1
  }
}